:020000040800F2
:1000000000000220C5630008950900089709000850
:10001000990900089B0900089D09000800000000DC
:100020000000000000000000000000009F09000820
:10003000A109000800000000A3090008A5090008A4
:10004000196400081964000819640008196400089C
:10005000196400081964000819640008196400088C
:10006000196400081964000819640008AD09000843
:10007000196400081964000819640008196400086C
:10008000196400081964000819640008196400085C
:10009000196400081964000819640008196400084C
:1000A000196400081964000819640008196400083C
:1000B000196400081964000819640008196400082C
:1000C000196400081964000819640008196400081C
:1000D000196400081964000819640008196400080C
:1000E000BD09000819640008000000001964000838
:1000F00019640008196400081964000819640008EC
:1001000019640008196400081964000819640008DB
:1001100019640008196400081964000819640008CB
:1001200019640008196400081964000819640008BB
:1001300019640008196400081964000819640008AB
:1001400000000000000000000000000000000000AF
:10015000196400081964000819640008196400088B
:10016000196400081964000819640008196400087B
:1001700019640008196400081964000800000000F0
:10018000196400081964000819640008196400085B
:10019000196400081964000819640008196400084B
:1001A00019640008196400081964000800000000C0
:1001B000196400081964000819640008196400082B
:1001C0001964000819640008000000000000000025
:1001D000000000000000000019640008000000009A
:1001E000000000000000000000000000000000000F
:1001F00000000000000000001964000819640008F5
:10020000196400081964000800000000196400085F
:1002100019640008196400081964000819640008CA
:1002200019640008000000001964000800000000C4
:10023000196400081964000800000000196400082F
:10024000196400081964000819640008196400089A
:10025000196400081964000819640008196400088A
:10026000196400081964000819640008196400087A
:1002700019640008196400081964000800000000EF
:10028000196400081964000819640008196400085A
:100290000000000019640008196400080000000054
:1002A00000000000196400081964000819640008BF
:1002B000196400081964000819640008196400082A
:0C02C000196400081964000819640008A3
:1002D00001F0FF01102A2BDB10F0070F08D010F8F7
:1002E000013B013A8B422DD010F0070F42B3F6D1FB
:1002F000F0B441EA012141EA014122F007047FF014
:1003000000070023F0E80256083C85EA010586EA6A
:10031000010685FA47F5A3FA87F586FA47F6A5FAA6
:1003200087F68EB9EED1F0BC01F0FF0102F00702B2
:1003300032B110F8013B013A83EA010313B1F8D15D
:100340000020704701387047002D06BF354603383E
:10035000073815F0010F07D1013015F4807F02BF77
:10036000013015F4C03F0130F0BC0138704700BFC8
:1003700053B94AB9002908BF00281CBF4FF0FF310C
:100380004FF0FF3000F00CB8ADF1080C6DE904CE71
:1003900006F0CEFFDDF804E0DDE9022304B070478B
:1003A000704700BF0348044B834202D0034B03B1A4
:1003B0001847704770000020700000200000000007
:1003C0000548064B1B1AD90F01EBA301491002D0B7
:1003D000034B03B1184770477000002070000020E5
:1003E0000000000010B5064C237843B9FFF7DAFF90
:1003F000044B13B10448AFF300800123237010BDF8
:1004000070000020000000002876000808B5054BA9
:100410001BB105490548AFF30080BDE80840FFF770
:10042000CFBF00BF00000000740000202876000845
:1004300030B585B00024009401940294039401F037
:1004400049F801238DF800308DF8014001941F22F6
:100450008DF8082087228DF809208DF80A408DF844
:100460000B408DF80C308DF80D308DF80E408DF866
:100470000F40684601F04CF8042001F039F805B04F
:1004800030BD000010B514464FF0FF3392B2024861
:1004900005F0ECFD204610BDE832002010B9024BFB
:1004A00001221A60704700BF8C00002008B572B6A8
:1004B000022000F0FBFEC82004F03AFDF8E700003F
:1004C00010B59CB04C22002109A806F0B1F92022F9
:1004D000002101A806F0ACF9022004F097FC0023EB
:1004E0000093214A936923F4404343F4004393610A
:1004F000936903F440430093009B1B4B9B6913F4E7
:10050000005FFAD00222099201240C9440230D933B
:10051000129200231393042014900C211591169429
:100520001790189219911A931B9309A801F0D8F803
:10053000A8B93F23019303230293002303930823C5
:1005400004934023059306934FF480620792089327
:10055000012101A801F0B2FC18B91CB010BDFFF7D1
:10056000A5FFFFF7A3FF00BF0048025808B5FFF73B
:100570005FFF04F09DFCFFF7A3FF00F045F805F0D6
:1005800005FF00F03DFB00F067FB00F08BF800F08A
:10059000B5F800F0DFF800F00FFC00F041FC00F0CF
:1005A00073FC164806F066F800F0D6FA144806F018
:1005B00061F800F05BFD002000F026FE012000F055
:1005C00023FE022000F020FE0121002000F082FE28
:1005D0000C494FF4E1330B600020486008814881EA
:1005E000888100F0E5FE38B9002000F05FFE4FF48E
:1005F0007A7004F09DFCF7E7FFF758FF407600089B
:10060000547600089000002086B0254BD3F8E020F7
:1006100042F01002C3F8E020D3F8E02002F010020C
:100620000092009AD3F8E02042F00402C3F8E020E0
:10063000D3F8E02002F004020192019AD3F8E020FE
:1006400042F02002C3F8E020D3F8E02002F02002BC
:100650000292029AD3F8E02042F00102C3F8E020AF
:10066000D3F8E02002F001020392039AD3F8E020CD
:1006700042F00202C3F8E020D3F8E02002F00202C8
:100680000492049AD3F8E02042F00802C3F8E02074
:10069000D3F8E03003F008030593059B06B07047DC
:1006A0000044025808B51348134B03604FF480030D
:1006B0004360002383600322C260036143614FF003
:1006C00080628261C361036243628362C3624FF0EE
:1006D000804242638363C363036443648364C3648B
:1006E00003654365836504F0B7FF00B908BDFFF7F4
:1006F000DDFEFBE7B00100200030014008B51348E3
:10070000134B03604FF48003436000238360032294
:10071000C260036143614FF080628261C361036222
:1007200043628362C3624FF0804242638363C36368
:10073000036443648364C36403654365836504F0B1
:100740008BFF00B908BDFFF7B1FEFBE728010020D1
:100750000038004008B51348134B03604FF4800382
:100760004360002383600322C260036143614FF052
:1007700080628261C361036243628362C3624FF03D
:10078000804242638363C363036443648364C364DA
:1007900003654365836504F05FFF00B908BDFFF79B
:1007A00085FEFBE7A0000020003C0040F0B5BDB096
:1007B000044600213791389139913A913B91B82202
:1007C00008A806F035F823686B4A934208D06B4AB4
:1007D000934238D06A4A934200F081803DB0F0BD28
:1007E0004FF480520023CDE9082308A801F0FEFD54
:1007F00030BB644BD3F8F02042F48052C3F8F020B1
:10080000D3F8F02002F480520092009AD3F8E0204E
:1008100042F00102C3F8E020D3F8E03003F0010316
:100820000193019BE02337930223389300233993EC
:100830003A9305233B9337A9534803F009F9CDE7D1
:10084000FFF734FED5E74FF480520023CDE90823AB
:1008500008A801F0CBFD00283ED14A4BD3F8E82090
:1008600042F48042C3F8E820D3F8E82002F4804242
:100870000292029AD3F8E02042F00402C3F8E0208A
:10088000D3F8E02002F004020392039AD3F8E020A8
:1008900042F00202C3F8E020D3F8E03003F0020394
:1008A0000493049B06233793022738970024399436
:1008B0003A9405263B9637AD2946344803F0C8F8EC
:1008C0004FF480633793389739943A943B9629468E
:1008D0002F4803F0BDF881E7FFF7E8FDBDE74FF4CF
:1008E00080520023CDE9082308A801F07FFD0028ED
:1008F0003FD1244BD3F8E82042F40042C3F8E8206B
:10090000D3F8E82002F400420592059AD3F8E020DB
:1009100042F00202C3F8E020D3F8E02002F0020225
:100920000692069AD3F8E02042F00402C3F8E020D1
:10093000D3F8E03003F004030793079B04233793B5
:1009400002263896002439943A9407233B9337AD16
:1009500029460F4803F07CF84FF4406337933896EC
:1009600039943A9406233B932946084803F070F8DB
:1009700034E7FFF79BFDBCE7003001400038004042
:10098000003C004000440258000002580008025891
:1009900000040258FEE7FEE7FEE7FEE7FEE77047C9
:1009A0007047704708B504F0B1FA08BD08B50248B1
:1009B00003F090FE08BD00BFA834002008B5002059
:1009C00000F0CEFC08BD000082B0074BD3F8F42045
:1009D00042F00202C3F8F420D3F8F43003F002032B
:1009E0000193019B02B07047004402582B4AD2F891
:1009F000883043F47003C2F88830294B1B6803F039
:100A00000F03062B06D8264A136823F00F0343F082
:100A100007031360234B1A6842F001021A60002298
:100A20001A611968204A0A401A601D4B1B6813F0AE
:100A3000080F06D01A4A136823F00F0343F0070388
:100A40001360184B00229A61DA611A6217499962A1
:100A50001749D962174919635A639963DA631964AC
:100A60005A64196821F4802119601A66D3F8D430C9
:100A700013F4805F10D10B4BD3F8D42042F4805292
:100A8000C3F8D4200C4A43F2D2011160D3F8D42029
:100A900022F48052C3F8D420704700BF00ED00E07C
:100AA00000200052004402587FEDF6EA00020202E4
:100AB0000000FF018002010100400052054AD36896
:100AC00043F00203D360034B5B6813F4005FFAD07A
:100AD000704700BF0048025810B503460C4A0D4944
:100AE0000D48006840B10C4800680344521A934214
:100AF00006D8094A136010BD0748084C0460F2E7A5
:100B000005F0E4FE0C2303604FF0FF30F3E700BF75
:100B1000000002200004000038020020A837002056
:100B200070B50C461646002506E0AFF3008021465E
:100B300001F8010B01350C46B542F6DB304670BDBD
:100B40004FF0FF3070474FF400534B600020704768
:100B5000012070470020704708B500F087FA4FF475
:100B600080620449044804F0C9FC00B908BDFFF7DD
:100B70009DFCFBE7402200202035002038B50023F3
:100B800000E001338B420FD230F823C0094D2C68AE
:100B9000621C2A60084D25F814C0B2F5805FF0D3BE
:100BA000044A00241460ECE7034B1988034805F05D
:100BB000F9FC38BD3C020020400200206C760008A1
:100BC00008B50268044B9A4200D008BD4FF400718A
:100BD0000248FFF7D3FFF8E7045801404022002005
:100BE00008B50268044B9A4200D008BD4FF400716A
:100BF0000248FFF7C3FFF8E704580140402A0020ED
:100C000008B51248124B0360124B43600023836007
:100C10000122C260036143618361C361036200F02A
:100C2000A3FC50B90021094800F002FD40B90021A1
:100C3000064800F02AFD30B908BDFFF737FCF1E7A0
:100C4000FFF734FCF3E7FFF731FCF5E794320020BF
:100C5000005400405D3E302008B51248124B03603E
:100C6000124B4360002383600122C2600361436131
:100C70008361C361036200F077FC50B90021094829
:100C800000F0D6FC40B90021064800F0FEFC30B967
:100C900008BDFFF70BFCF1E7FFF708FCF3E7FFF7F0
:100CA00005FCF5E740320020005800405D3E302052
:100CB00010B5B8B004460021339134913591369186
:100CC0003791B82204A805F0B3FD2368354A934252
:100CD00004D0354A934233D038B010BD08220023E7
:100CE000CDE9042304A801F081FB30BB2F4CD4F8DC
:100CF000E03043F00203C4F8E030D4F8E03003F011
:100D000002030093009BC0233393122334930023E8
:100D1000359336930423379333A9254802F098FE80
:100D2000D4F8E83043F40013C4F8E830D4F8E830DD
:100D300003F400130193019BCEE7FFF7B7FBD5E760
:100D400008220023CDE9042304A801F04FFB30BBA7
:100D5000164CD4F8E03043F02003C4F8E030D4F867
:100D6000E03003F020030293029B0323339312230A
:100D700034930023359336930423379333A90D48D6
:100D800002F066FED4F8E83043F48003C4F8E8309B
:100D9000D4F8E83003F480030393039B9CE7FFF748
:100DA00085FBD5E70054004000580040004402583D
:100DB000000402580014025808B51748174B036086
:100DC0004FF4E133436000238360C36003610C226E
:100DD00042618361C36103624362836205F013FA77
:100DE00070B900210C4805F086FA60B900210A4864
:100DF00005F0A6FA50B9084805F05EFA48B908BDF2
:100E0000FFF754FBEDE7FFF751FBEFE7FFF74EFB72
:100E1000F1E7FFF74BFBF2E710340020004C0040F5
:100E200008B51748174B03604FF4E13343600023C4
:100E30008360C36003610C2242618361C36103620A
:100E40004362836205F0DFF970B900210C4805F0B8
:100E500052FA60B900210A4805F072FA50B9084800
:100E600005F02AFA48B908BDFFF720FBEDE7FFF7C8
:100E70001DFBEFE7FFF71AFBF1E7FFF717FBF2E7C0
:100E80007C3300200010014008B51748174B036061
:100E90004FF4E133436000238360C36003610C229D
:100EA00042618361C36103624362836205F0ABF90F
:100EB00070B900210C4805F01EFA60B900210A48FB
:100EC00005F03EFA50B9084805F0F6F948B908BDF2
:100ED000FFF7ECFAEDE7FFF7E9FAEFE7FFF7E6FADD
:100EE000F1E7FFF7E3FAF2E7E832002000480040BC
:100EF00070B5BAB0044600213591369137913891DA
:100F00003991B82206A805F093FC2368514A934210
:100F100008D0514A934237D0504A934200F0818022
:100F20003AB070BD02220023CDE9062306A801F0E5
:100F30005DFA30BB4A4BD3F8E82042F40022C3F8F4
:100F4000E820D3F8E82002F400220092009AD3F8B7
:100F5000E02042F00102C3F8E020D3F8E03003F0D3
:100F600001030193019B032335930223369300234E
:100F7000379338930823399335A93A4802F068FD2E
:100F8000CEE7FFF793FAD5E701220023CDE9062348
:100F900006A801F02BFA002840D1314BD3F8F020FD
:100FA00042F01002C3F8F020D3F8F02002F0100253
:100FB0000292029AD3F8E02042F00202C3F8E02045
:100FC000D3F8E02002F002020392039AD3F8E02063
:100FD00042F00102C3F8E020D3F8E03003F001034F
:100FE0000493049B4FF40043359302263696002465
:100FF000379438940423399335AD29461A4802F0C2
:1010000027FD4FF4007335933696379438940723B1
:1010100039932946134802F01BFD81E7FFF746FA92
:10102000BBE702220023CDE9062306A801F0DEF982
:1010300068B90B4BD3F8E82042F48022C3F8E820CB
:10104000D3F8E83003F480230593059B68E7FFF7A6
:101050002DFAEEE7004C004000100140004800402F
:1010600000440258000002580004025808B50C4819
:101070000C4B036001234360002181604161816169
:10108000C1614BF680330362C160C1620163022318
:101090001A4604F01DFA00B908BDFFF707FAFBE78E
:1010A000203500200458014030B5B7B00446B822BE
:1010B000002102A805F0BCFB22682A4B9A4201D00D
:1010C00037B030BD4FF480720023CDE9022302A86F
:1010D00001F08CF900283ED1234B1B6863B9234AE9
:1010E000D2F8F01041F48001C2F8F010D2F8F020EC
:1010F00002F480020192019A01331B4A13607023AB
:10110000319302233293002533953495062335938A
:1011100031A9174802F09CFC1648174B036057236F
:1011200043608560C5604FF4806303614FF4805372
:1011300043614FF4804383614FF48073C361056260
:10114000456202F0AFFF48B90A4BC4F884309C6393
:10115000C4F88030B4E7FFF7A9F9BDE7FFF7A6F9B7
:10116000F2E700BF04580140A434002000440258B4
:1011700000100258A834002010000240F0B589B0D9
:101180001F4BD3F8E02042F00802C3F8E020D3F868
:10119000E02002F008020092009AD3F8E02042F02A
:1011A0000802C3F8E020D3F8E02002F00802019220
:1011B000019AD3F8E82042F48022C3F8E820D3F85B
:1011C000E83003F480230293029B4FF4807303936F
:1011D000022404940694012305930727079703AE7E
:1011E000084D3146284602F033FC4FF40073039358
:1011F000049407973146284602F02AFC09B0F0BD56
:1012000000440258000C0258022846D870B588B035
:1012100028BB234BD3F8E02042F00202C3F8E020C1
:10122000D3F8E03003F002030093009B1D4B33F82A
:10123000106003960123049300240594032306936E
:10124000194B53F8205003A9284602F001FC22460E
:101250003146284602F006FD204608B070BD012840
:101260000DD00F4BD3F8E02042F00202C3F8E0208B
:10127000D3F8E03003F002030293029BD6E7084B59
:10128000D3F8E02042F01002C3F8E020D3F8E030B9
:1012900003F010030193019BC8E76FF00100704752
:1012A000004402588C7600089476000802280AD878
:1012B00008B5064B33F81010054B53F8200002F028
:1012C000D7FC002008BD6FF0010070478C76000845
:1012D0009476000810B586B01C4BD3F8E02042F09D
:1012E0000402C3F8E020D3F8E03003F004030093D5
:1012F000009B4FF40053019302230393049341B9DD
:101300000023029301A9124802F0A2FB002006B0BC
:1013100010BD04464FF48813029301A90C4802F053
:1013200097FB0C4B03EBC4040B49204603F01DFE56
:101330000A4A0021204603F00FFE00220F21282038
:1013400000F0A0F8282000F0ADF8DFE700440258D4
:10135000000802584C3600200D00301675130008A6
:1013600008B5034B03EBC00003F006FE08BD00BF49
:101370004C36002008B50020FFF790F808BD0000AB
:1013800008B50A4A126802600A6842600C2242618B
:101390004A8902614A6882600A89C2608A898261D8
:1013A0004FF40042C26104F02EFF08BD0800002087
:1013B00070B938B50D469422084C02FB0044204613
:1013C000FFF7DCFE29462046FFF7DAFF18B938BDE3
:1013D0006FF0010070476FF00300F8E7B8350020A8
:1013E000002807DB00F01F02400901239340024A56
:1013F00042F82030704700BF00E100E0002804DB25
:101400000901C9B2044B1954704700F00F000901DB
:10141000C9B2024B1954704700E400E014ED00E03B
:1014200000B500F00700C0F1070CBCF1040F28BFA5
:101430004FF0040C031D062B0FD9C31E4FF0FF3EC7
:101440000EFA0CF021EA000199400EFA03FE22EA9E
:101450000E0241EA02005DF804FB0023EEE7000003
:101460000649CB6823F4E0631B041B0C000200F464
:10147000E0600343024A1A43CA60704700ED00E08F
:101480000000FA0510B50446054BD868C0F30220E9
:10149000FFF7C6FF01462046FFF7B0FF10BD00BFB3
:1014A00000ED00E008B5FFF79BFF08BD0138B0F183
:1014B000807F0BD24FF0E0235861054AF02182F87B
:1014C00023100020986107221A617047012070479D
:1014D00000ED00E0BFF35F8F044B5A6A22F48032C4
:1014E0005A620022C3F89420704700BF00ED00E06C
:1014F00040F00100054BC3F894005A6A42F4803270
:101500005A62BFF34F8FBFF36F8F704700ED00E05B
:101510004378144AC2F89830D2F8A03023F001037F
:10152000C2F8A0304368C2F89C30017BC37A1B0626
:1015300043EA0173817A43EAC143417B43EA814331
:10154000817B43EA4143C17B43EA0143417A43EA59
:101550000123017A43EA410301780B43C2F8A0302A
:10156000704700BF00ED00E000285DD010B50446D4
:1015700090F84130002B46D0242384F84130226873
:10158000136823F0010313606368226823F070631B
:1015900013612268936823F400439360E368012B8E
:1015A00036D0A368226843F404439360E368022BB7
:1015B00034D02268536823F4006353602268516872
:1015C0001A4B0B4353602268D36823F40043D36063
:1015D000236962691343A169226843EA0123D36046
:1015E000E369216A22680B4313602268136843F0A1
:1015F0000103136000206064202384F841302063DD
:1016000084F8420010BD80F84030FFF751FBB3E78B
:10161000A368226843F400439360C7E722685368D5
:1016200043F400635360C9E7012070470080000263
:10163000034690F84120202A23D190F84020012A27
:1016400021D0012280F84020242280F84120006827
:10165000026822F0010202601868026822F48052D7
:101660000260186802680A43026019680A6842F05A
:1016700001020A60202283F84120002083F8400004
:1016800070470220704702207047034690F84120BF
:10169000202A21D190F84020012A1FD0012280F871
:1016A0004020242280F841200068026822F00102D4
:1016B00002601868026822F4706242EA0122026045
:1016C00019680A6842F001020A60202283F841206A
:1016D000002083F8400070470220704702207047C6
:1016E000002800F0D58238B50446036813F0010FD6
:1016F00025D0A04A136903F03803926A102B15D045
:10170000182B0FD06368B3F5803F3FD0002B53D127
:10171000984B1A6822F480321A601A6822F48022E8
:101720001A6038E002F00302022AEBD1914B1B68E9
:1017300013F4003F03D06368002B00F0AB822368F2
:1017400013F0020F00F088808A4A1369926A13F03E
:1017500038035AD0182B55D0E368002B00F0A9802D
:1017600084490A6822F0190213430B6003F0DAFB84
:101770000546804B1B6813F0040F40F0918003F086
:10178000D1FB401B0228F4D903208AE2794A13686E
:1017900043F48033136063682BB303F0C3FB054647
:1017A000744B1B6813F4003FC9D103F0BBFB401B13
:1017B0006428F5D9032074E2B3F5A02F09D06D4B4E
:1017C0001A6822F480321A601A6822F480221A60A1
:1017D000E1E7684B1A6842F480221A601A6842F402
:1017E00080321A60D7E703F09DFB0546614B1B680A
:1017F00013F4003FA3D003F095FB401B6428F5D9F8
:1018000003204EE212F0030FA6D15A4B1B6813F0CF
:10181000040F03D0E368002B00F03E82554A1368A2
:1018200023F01903E1680B43136003F07BFB0546CB
:10183000504B1B6813F0040F06D103F073FB401BE1
:101840000228F5D903202CE24A4A536823F0FE43CC
:10185000216943EA01635360236813F0100F51D0EC
:10186000444A136903F03803926A082B39D0182BC5
:1018700033D0E369002B69D03E4A136843F08003FC
:10188000136003F04FFB05463A4B1B6813F4807F4F
:1018900053D103F047FB401B0228F5D9032000E297
:1018A000344A536823F0FE43216943EA01635360DD
:1018B000D2E7304A136823F00103136003F032FBD0
:1018C00005462C4B1B6813F0040FC5D003F02AFB10
:1018D000401B0228F5D90320E3E102F00302012AAC
:1018E000C7D1244B1B6813F4807F03D0E369802B9E
:1018F00040F0D4811F4AD36823F07C53216A43EA25
:101900000163D360236813F0080F49D06369002B8B
:1019100032D0184A536F43F00103536703F002FBC0
:101920000546144B5B6F13F0020F39D103F0FAFA3E
:10193000401B0228F5D90320B3E10E4AD36823F0F7
:101940007C53216A43EA0163D360DBE7094A1368E9
:1019500023F08003136003F0E5FA0546054B1B688E
:1019600013F4807FCED003F0DDFA401B0228F5D9B6
:10197000032096E1004402589D4A536F23F001036F
:10198000536703F0CFFA0546994B5B6F13F0020FD4
:1019900006D003F0C7FA401B0228F5D9032080E1E6
:1019A000236813F0200F29D0A3699BB1904A1368D4
:1019B00043F48053136003F0B5FA05468C4B1B6863
:1019C00013F4005F1AD103F0ADFA401B0228F5D9D9
:1019D000032066E1864A136823F48053136003F002
:1019E000A1FA0546824B1B6813F4005F06D003F092
:1019F00099FA401B0228F5D9032052E1236813F01D
:101A0000040F21D1636A002B00F04A81784A1269E1
:101A100002F03802182A00F0F180022B75D0744AC7
:101A2000136823F08073136003F07CFA0446704B54
:101A30001B6813F0007F00F0D88003F073FA001BDE
:101A40000228F4D903202CE16A4A136843F4807316
:101A5000136003F067FA0546664B1B6813F4807F3A
:101A600006D103F05FFA401B6428F5D9032018E182
:101A7000A368012B0AD00BBB5D4B1A6F22F0010249
:101A80001A671A6F22F004021A6704E0584A136FAB
:101A900043F001031367A36833B303F043FA054629
:101AA000534B1B6F13F0020FACD103F03BFA401BFA
:101AB00041F288339842F3D90320F2E0052B09D094
:101AC0004B4B1A6F22F001021A671A6F22F00402C0
:101AD0001A67E0E7464B1A6F42F004021A671A6F62
:101AE00042F001021A67D6E703F01CFA0546404BA4
:101AF0001B6F13F0020F85D003F014FA401B41F264
:101B000088339842F3D90320CBE0394A136823F095
:101B10008073136003F006FA0546354B1B6813F01B
:101B2000007F06D003F0FEF9401B0228F5D9032000
:101B3000B7E02F4B996A304A0A40A16AE06A41EA4D
:101B400000110A439A62226B013AC2F30802616BE8
:101B50000139490289B20A43A16B0139090401F430
:101B6000FE010A43E16B0139090601F0FE410A4317
:101B70001A63DA6A22F00102DA625A6B6FF3CF025B
:101B8000A16C42EAC1025A63DA6A22F00C02216CAB
:101B90000A43DA62DA6A22F00202616C0A43DA620C
:101BA000DA6A42F48032DA62DA6A42F40032DA62E5
:101BB000DA6A42F48022DA62DA6A42F00102DA6218
:101BC0001A6842F080721A6003F0ACF90446084BC0
:101BD0001B6813F0007F06D103F0A4F9001B022854
:101BE000F5D903205DE000205BE0002059E000BF54
:101BF00000440258004802580CFCFFFF30498A6A32
:101C0000086B012B4ED002F00303A16A8B424BD12B
:101C1000C2F30512E36A9A4248D1C0F30802236B6B
:101C2000013B9A4244D1C0F34622636B013B9A4286
:101C300040D1C0F30642A36B013B9A423CD1C0F3B2
:101C40000660E36B013B984238D11D4B5B6BC3F3DD
:101C5000CC03A26C9A4201D1002022E0184AD36A38
:101C600023F00103D36203F05DF9054603F05AF94E
:101C7000A842FBD0124A536B6FF3CF03A16C43EA27
:101C8000C1035363D36A43F00103D362002008E029
:101C900001207047012004E0012002E0012000E063
:101CA000002038BD0120FCE70120FAE70120F8E719
:101CB0000120F6E70120F4E70120F2E70120F0E738
:101CC00000440258754B1B6903F03803102B00F0D9
:101CD000DE80182B0FD0002B40F0DB806F4B1B6891
:101CE00013F0200F00F0D7806C4B1B68C3F3C103C7
:101CF0006B48D840704710B4684B9A6A02F00302F0
:101D00009C6AC4F30510D96A01F001015B6BC3F34F
:101D1000CC0301FB03F307EE903AF8EE677A14F474
:101D20007C7F77D0012A4AD0022A76D0002A40F060
:101D300091805A4B1B6813F0200F23D057490A6833
:101D4000C2F3C102564BD34007EE103AF8EE476A91
:101D500007EE100AB8EE476A86EE867A0B6BC3F37D
:101D6000080306EE903AF8EE666A9FED4E6A67EE5B
:101D7000867A76EEA77AF7EE006A77EEA67A27EEF5
:101D8000277A38E007EE100AF8EE476A9FED466AB8
:101D900086EE267A414B1B6BC3F3080306EE903A9E
:101DA000F8EE666A9FED3F6A67EE867A76EEA77A6E
:101DB000F7EE006A77EEA67A27EE277A1BE007EEA9
:101DC000100AF8EE476A9FED396A86EE267A334BA1
:101DD0001B6BC3F3080306EE903AF8EE666A9FEDBC
:101DE000316A67EE867A76EEA77AF7EE006A77EECA
:101DF000A67A27EE277A294B1B6BC3F346230133C0
:101E000007EE903AF8EE677AC7EE276AFCEEE67ABC
:101E100017EE900A5DF8044B704707EE100AF8EED3
:101E2000476A9FED236A86EE267A1C4B1B6BC3F331
:101E3000080306EE903AF8EE666A9FED1A6A67EEBE
:101E4000867A76EEA77AF7EE006A77EEA67A27EE24
:101E5000277AD0E707EE100AF8EE476A9FED136A7B
:101E600086EE267A0D4B1B6BC3F3080306EE903A01
:101E7000F8EE666A9FED0B6A67EE867A76EEA77AD1
:101E8000F7EE006A77EEA67A27EE277AB3E70948DD
:101E90007047094870470248704700BF0044025825
:101EA0000090D003000000390024744C0024744AD0
:101EB0000024F44A00127A0000093D00002800F0D6
:101EC000328170B50D4604469B4B1B6803F00F032F
:101ED0008B420BD2984A136823F00F030B43136015
:101EE000136803F00F038B4240F01F81236813F047
:101EF000040F0CD02269914B9B6903F070039A4246
:101F000005D98E498B6923F070031A438A612368CF
:101F100013F0080F0CD06269884BDB6903F0700383
:101F20009A4205D98549CB6923F070031A43CA61E7
:101F3000236813F0100F0CD0A269804BDB6903F407
:101F4000E0639A4205D97D49CB6923F4E0631A43E3
:101F5000CA61236813F0200F0CD0E269774B1B6A2B
:101F600003F070039A4205D974490B6A23F0700399
:101F70001A430A62236813F0020F0CD0E2686F4B19
:101F80009B6903F00F039A4205D96C498B6923F0D2
:101F90000F031A438A61236813F0010F41D0674A87
:101FA000936923F47063A1680B4393616368022B08
:101FB0000AD0032B27D0012B2CD0604A126812F0D4
:101FC000040F06D10120ADE0126812F4003F00F0CA
:101FD000AE805A490A6922F0070213430B6102F0EE
:101FE000A1FF0646554B1B6903F038036268B3EB4B
:101FF000C20F16D002F096FF801B41F28833984240
:10200000F0D903208EE04D4A126812F0007FE0D133
:10201000012087E0494A126812F4807FD9D101205B
:1020200080E0236813F0020F0CD0E268434B9B69F9
:1020300003F00F039A4205D240498B6923F00F0346
:102040001A438A613C4B1B6803F00F03AB420AD969
:10205000394A136823F00F032B431360136803F00E
:102060000F03AB4265D1236813F0040F0CD0226933
:10207000324B9B6903F070039A4205D22F498B695A
:1020800023F070031A438A61236813F0080F0CD001
:1020900062692A4BDB6903F070039A4205D2274933
:1020A000CB6923F070031A43CA61236813F0100F41
:1020B0000CD0A269214BDB6903F4E0639A4205D29C
:1020C0001E49CB6923F4E0631A43CA61236813F005
:1020D000200F0CD0E269194B1B6A03F070039A427F
:1020E00005D216490B6A23F070031A430A62FFF700
:1020F000E9FD12498B69C3F30323114AD35C03F052
:102100001F03D8408B6903F00F03D35C03F01F0358
:1021100020FA03F30B4A13600B4B18600B4B186843
:1021200002F09EFE70BD012070470120FAE70120F9
:10213000F8E70120F6E700BF0020005200440258F3
:102140007C76000800000020040000201000002021
:1021500008B5FFF7B7FD0B4A9369C3F303230A4998
:10216000CB5C03F01F0320FA03F3926902F00F0225
:10217000885C00F01F0023FA00F0044A1060044A53
:10218000136008BD004402587C760008000000205F
:102190000400002008B5FFF7DBFF054BDB69C3F344
:1021A0000213044AD35C03F01F03D84008BD00BFEC
:1021B000004402587C76000808B5FFF7C9FF054BBC
:1021C000DB69C3F30223044AD35C03F01F03D84046
:1021D00008BD00BF004402587C760008404B9B6A53
:1021E00003F00303032B79D070B505460E463C4A35
:1021F000136823F08063136002F094FE0446384BAA
:102200001B6813F0006F06D002F08CFE031B022B3C
:10221000F5D9032070BD324B9A6A22F47C322968CA
:1022200042EA01329A626A68013AC2F30802A96876
:102230000139490289B20A43E9680139090401F404
:10224000FE010A4329690139090601F0FE410A43EA
:102250009A63DA6A22F0C00269690A43DA62DA6ACA
:1022600022F02002A9690A43DA62DA6A22F0100237
:10227000DA62DA6B6FF3CF02E96942EAC102DA632C
:10228000DA6A42F01002DA62C6B91A46DB6A43F42F
:102290000023D362124A136843F08063136002F094
:1022A00041FE04460E4B1B6813F0006F14D102F080
:1022B00039FE001B0228F5D90320ABE7012E05D01B
:1022C000074AD36A43F40013D362E3E7044AD36AAC
:1022D00043F48013D362DDE700209BE701207047C1
:1022E00000440258404B9B6A03F00303032B79D050
:1022F00070B505460E463C4A136823F080531360C0
:1023000002F010FE0446384B1B6813F0005F06D045
:1023100002F008FE031B022BF5D9032070BD324BDF
:102320009A6A22F07C72296842EA01529A626A68CB
:10233000013AC2F30802A9680139490289B20A4385
:10234000E9680139090401F4FE010A4329690139E8
:10235000090601F0FE410A431A64DA6A22F4406277
:1023600069690A43DA62DA6A22F40072A9690A43E7
:10237000DA62DA6A22F48072DA625A6C6FF3CF02A0
:10238000E96942EAC1025A64DA6A42F48072DA62A6
:10239000C6B91A46DB6A43F48003D362124A136853
:1023A00043F08053136002F0BDFD04460E4B1B68E2
:1023B00013F0005F14D102F0B5FD001B0228F5D91F
:1023C0000320ABE7012E05D0074AD36A43F08073A0
:1023D000D362E3E7044AD36A43F40003D362DDE740
:1023E00000209BE70120704700440258F8B50446DE
:1023F000036813F0006F30D0436EB3F5001F26D092
:102400000ED8ABB1B3F5801F07D102210830FFF71A
:10241000E5FE054695B12E4621E0012635461EE033
:10242000B3F5401F01D1002508E00126354616E02E
:102430009B4AD36A43F40033D3620025984A136D54
:1024400023F44013616E0B431365002607E002215D
:102450002830FFF747FF0546DCE7002635462368AE
:1024600013F4807F14D0A36D042B34D8DFE803F07D
:1024700003252C0808008A4AD36A43F40033D36248
:1024800065BB874A136D23F00703A16D0B431365EA
:10249000236813F4806F47D0D4F8A430B3F5800FCD
:1024A00033D020D85BB3B3F5001F19D1002104F15C
:1024B0000800FFF793FE05462DE0002104F1080017
:1024C000FFF78CFE0546DBE7002104F12800FFF74B
:1024D00009FF0546D4E701263546D9E72E46D7E75A
:1024E0000126354620E0B3F5000F14D0B3F5200FD8
:1024F00011D0B3F5C00F0ED00126354614E0684A5E
:10250000D36A43F40033D36205E0002104F12800CC
:10251000FFF7E8FE0546E5B9614A936D23F46003D1
:10252000D4F8A4100B439365236813F4006F36D0DE
:10253000D4F8A830B3F1007F22D00FD8D3B1B3F1D3
:10254000807F08D1002104F10800FFF747FE05460F
:102550001CE02E46E8E70126354620E0B3F1806F07
:1025600014D0B3F1A06F11D0B3F1407F0ED001268B
:10257000354614E04A4AD36A43F40033D36205E097
:10258000002104F12800FFF7ADFE0546C5B9444A15
:10259000936D23F0E063D4F8A8100B439365236890
:1025A00013F0007F24D0E36C202B13D00DD8BBB1E7
:1025B000102B07D13A4AD36A43F40033D3620FE0B9
:1025C0002E46ECE70126354612E0302B08D00126D6
:1025D00035460DE0022104F10800FFF7FFFD054636
:1025E000D5B92F4AD36C23F03003E16C0B43D3648D
:1025F000236813F4805F31D0E36DB3F5005F1FD023
:102600000FD8BBB1B3F5805F08D1002104F10800F9
:10261000FFF7E4FD054619E02E46E9E701263546B9
:102620001CE0B3F5405F11D0B3F5804F0ED001260A
:10263000354613E01A4AD36A43F40033D36205E007
:10264000002104F12800FFF74DFE054615BB144A92
:10265000136D23F4E043E16D0B431365236813F41A
:10266000005F33D0236EB3F5003F27D01AD843B1B3
:10267000B3F5803F10D1012104F10800FFF7AEFD52
:10268000054615BB064A136D23F4E023216E0B4368
:1026900013651BE02E46E1E70126354616E000BF34
:1026A00000440258B3F5802FEBD0B3F5A02FE8D04B
:1026B000B3F5403FE5D00126354607E0012104F19E
:1026C0002800FFF70FFE0546DBE72E46236813F4CC
:1026D000804F30D0D4F8AC30B3F1005F23D016D89F
:1026E00043B1B3F1805F0FD1012104F10800FFF77E
:1026F00075FD0546F5B98B4A936D23F0E043D4F898
:10270000AC100B43936516E00126354613E0B3F198
:10271000804FEFD0B3F1A04FECD0B3F1405FE9D0E0
:102720000126354607E0012104F12800FFF7DAFD14
:102730000546DFE72E46236813F4004F20D0E36EF2
:10274000B3F1805F06D0B3F1005F11D03BB1012639
:10275000354615E0734AD36A43F40033D36275B942
:10276000704A136D23F04053E16E0B43136507E08D
:10277000012104F10800FFF731FD0546EFE72E4681
:10278000236813F0807F13D0A36C032B3BD8DFE8C2
:1027900003F007023307634AD36A43F40033D3627A
:1027A000A5BB604AD36C23F00303A16C0B43D36435
:1027B000236813F4800F2BD1236813F0010F00F06E
:1027C000A380A36F282B00F29D80DFE803F08B9B92
:1027D0009B9B9B9B9B9B859B9B9B9B9B9B9B949B66
:1027E0009B9B9B9B9B9B8B9B9B9B9B9B9B9B8B9B59
:1027F0009B9B9B9B9B9B8B00022104F10800FFF796
:10280000EDFC0546CCE701263546D1E72E46CFE75D
:10281000454A136843F48073136002F083FB074654
:10282000414B1B6813F4807F05D102F07BFBC01B7A
:102830006428F5D90325002D4AD13A4B1B6FD4F8F3
:10284000B020534013F4407F0CD0364B1A6F22F463
:102850004072196F41F480311967196F21F480318A
:1028600019671A67D4F8B030B3F5807F15D08DBBE7
:10287000D4F8B03003F44072B2F5407F1ED0294A3C
:10288000136923F47C53136126490B6FD4F8B020ED
:10289000C2F30B0213430B678EE702F043FB0746BC
:1028A000204B1B6F13F0020FE1D102F03BFBC01B6A
:1028B00041F288339842F3D90325D8E719480269D1
:1028C00022F47C52194901EA131313430361DBE735
:1028D0002E4671E72E466FE7012104F10800FFF74D
:1028E0007DFC0546E5B90F4A536D23F03803A16F0F
:1028F0000B43536508E0012104F12800FFF7F2FCC7
:102900000546EFE701263546236813F0020F1DD078
:10291000636F052B32D8DFE803F0110B2A11111178
:102920002E46F1E70044025800480258CFFFFF004E
:10293000012104F10800FFF751FC05460DBBB74A21
:10294000536D23F00703616F0B435365236813F046
:10295000040F29D0D4F89030052B00F20881DFE86D
:1029600013F018001200FF001800180018000121D1
:1029700004F12800FFF7B6FC0546DFE701263546DF
:10298000E4E72E46E2E7012104F10800FFF726FC08
:102990000546002D40F0EE80A04A936D23F007031A
:1029A000D4F890100B439365236813F0200F1DD0CB
:1029B000D4F88C30B3F1005F00F0F08000F2DF80DB
:1029C0004BB1B3F1805F40F0D780002104F10800E3
:1029D000FFF704FC0546002D40F0E7808F4A536D59
:1029E00023F0E043D4F88C100B435365236813F0B5
:1029F000400F1DD0D4F89830B3F5006F00F0E98097
:102A000000F2D8804BB1B3F5806F40F0D080002148
:102A100004F10800FFF7E2FB0546002D40F0E080DE
:102A20007E4A936D23F4E053D4F898100B439365DA
:102A3000236813F0800F1DD0D4F89C30B3F5804F7D
:102A400000F0E28000F2D1804BB1B3F5005F40F0BE
:102A5000C980002104F10800FFF7C0FB0546002DE6
:102A600040F0D9806D4A936D23F46043D4F89C10F4
:102A70000B439365236813F0080F0DD0D4F8803012
:102A8000B3F5805F00F0CC80644A536D23F440536B
:102A9000D4F880100B435365236813F0100F0DD04A
:102AA000D4F89430B3F5807F00F0C4805B4A936D16
:102AB00023F44073D4F894100B439365236813F404
:102AC000002F1CD0D4F8A030B3F5803F00F0BC80BC
:102AD000B3F5003F08D0002B40F0BD80002104F189
:102AE0000800FFF77BFB0546002D40F0B7804B4AFE
:102AF000936D23F44033D4F8A0100B4393652368FF
:102B000013F4802F1CD0D4F88430B3F5001F00F0EC
:102B1000A780B3F5401F08D0B3F5801F40F0A78011
:102B20003E4AD36A43F40033D362002D40F0A280C2
:102B30003A4A536D23F44013D4F884100B43536581
:102B4000236813F4803F00F0AD80236D002B00F06C
:102B50009380B3F5803F00F09D8001263546A1E0CB
:102B6000012104F12800FFF7BDFB054611E701260E
:102B7000354619E72E4617E70126354636E7B3F105
:102B8000804F3FF428AFB3F1A04F3FF424AFB3F12F
:102B9000405F3FF420AF0126354627E7022104F1CC
:102BA0002800FFF79FFB054615E72E461EE7012686
:102BB00035463DE7B3F5805F3FF42FAFB3F5A05F37
:102BC0003FF42BAFB3F5406F3FF427AF01263546F6
:102BD0002EE7022104F12800FFF784FB05461CE7DD
:102BE0002E4625E70126354644E7B3F5004F3FF46E
:102BF00036AFB3F5204F3FF432AFB3F5C04F3FF4DB
:102C00002EAF0126354635E7022104F12800FFF7F3
:102C100069FB054623E72E462CE700BF0044025817
:102C2000022104F12800FFF75DFB00283FF42CAFE0
:102C3000012629E7022104F12800FFF753FB0028B1
:102C40003FF434AF012631E7022104F12800FFF7F9
:102C500049FB054648E70126354650E72E464EE734
:102C6000012104F12800FFF73DFB05465DE7012641
:102C7000354665E72E4663E7694AD36A43F4003375
:102C8000D36275B9664AD36C23F48033216D0B434C
:102C9000D36407E0022104F10800FFF79FFA05461C
:102CA000EFE72E46236813F0005F10D1236813F47A
:102CB000003F26D0E36FB3F5807F14D010D9B3F571
:102CC000007F15D0B3F5407F12D0012619E0022114
:102CD00004F12800FFF706FB0028E7D00126E5E70E
:102CE00033B101260DE04E4AD36A43F40033D36278
:102CF000002D5CD14A4A536D23F44073E16F0B43BE
:102D00005365236813F4801F06D0454A136D23F0E2
:102D10000043216F0B431365236813F4001F06D093
:102D20003F4A136D23F08073A16E0B431365236834
:102D300013F0804F09D03A4B1A6922F400421A610D
:102D40001A69D4F8B4100A431A612368002B06DA12
:102D5000334AD36C23F04053616D0B43D364236833
:102D600013F4000F07D02E4A536D23F44003D4F818
:102D700088100B435365636813F0010F19D1636822
:102D800013F0020F1ED1636813F0040F23D16368A0
:102D900013F0080F28D1636813F0100F2DD163686A
:102DA00013F0200F32D106B101263046F8BD2E4671
:102DB000A7E7002104F10800FFF710FA0028DED091
:102DC0000646DCE7012104F10800FFF707FA0028B6
:102DD000D9D00646D7E7022104F10800FFF7FEF933
:102DE0000028D4D00646D2E7002104F12800FFF7DE
:102DF00079FA0028CFD00646CDE7012104F128005A
:102E0000FFF770FA0028CAD00646C8E7022104F18D
:102E10002800FFF767FA0028C5D00126C5E700BFE4
:102E20000044025808B5FFF793F9054B1B6AC3F33A
:102E30000213044AD35C03F01F03D84008BD00BF4F
:102E4000004402587C76000810B4794B9A6A9C6A58
:102E5000C4F3053CD96AC1F30011DB6BC3F3CC03A7
:102E600001FB03F314F47C3F00F0DD8002F0030269
:102E700007EE903AF8EE677A012A4BD0022A00F06A
:102E80009880002A40F0B280694B1B6813F0200F35
:102E900023D067490A68C2F3C102664BD34007EEEC
:102EA000103AF8EE476A07EE10CAB8EE476A86EEA7
:102EB000867A8B6BC3F3080306EE903AF8EE666AE7
:102EC0009FED5D6A67EE867A76EEA77AF7EE006A86
:102ED00077EEA67A27EE277A38E007EE10CAF8EEEA
:102EE000476A9FED566A86EE267A514B9B6BC3F379
:102EF000080306EE903AF8EE666A9FED4F6A67EEB9
:102F0000867A76EEA77AF7EE006A77EEA67A27EE53
:102F1000277A1BE007EE10CAF8EE476A9FED486A71
:102F200086EE267A424B9B6BC3F3080306EE903A7B
:102F3000F8EE666A9FED406A67EE867A76EEA77ACB
:102F4000F7EE006A77EEA67A27EE277A384A936B77
:102F5000C3F3462307EE903AF8EE677AF7EE006A7D
:102F600077EEA67A87EE276ABCEEC66A80ED006A25
:102F7000936BC3F3064307EE903AF8EE677A77EE69
:102F8000A67A87EE276ABCEEC66A80ED016A936B6B
:102F9000C3F3066307EE903AF8EE677A77EEA67A07
:102FA000C7EE276AFCEEE66AC0ED026A5DF8044BE4
:102FB000704707EE10CAF8EE476A9FED226A86EE68
:102FC000267A1B4B9B6BC3F3080306EE903AF8EE90
:102FD000666A9FED196A67EE867A76EEA77AF7EE53
:102FE000006A77EEA67A27EE277AAFE707EE10CAD7
:102FF000F8EE476A9FED126A86EE267A0C4B9B6BC1
:10300000C3F3080306EE903AF8EE666A9FED0A6A8B
:1030100067EE867A76EEA77AF7EE006A77EEA67A02
:1030200027EE277A92E70023036043608360BDE7C1
:10303000004402580090D003000000390024744C72
:103040000024744A0024F44A10B4794B9A6A9C6AAA
:10305000C4F3055CD96AC1F300215B6CC3F3CC03F4
:1030600001FB03F314F07C7F00F0DD8002F003022B
:1030700007EE903AF8EE677A012A4BD0022A00F068
:103080009880002A40F0B280694B1B6813F0200F33
:1030900023D067490A68C2F3C102664BD34007EEEA
:1030A000103AF8EE476A07EE10CAB8EE476A86EEA5
:1030B000867A0B6CC3F3080306EE903AF8EE666A64
:1030C0009FED5D6A67EE867A76EEA77AF7EE006A84
:1030D00077EEA67A27EE277A38E007EE10CAF8EEE8
:1030E000476A9FED566A86EE267A514B1B6CC3F3F6
:1030F000080306EE903AF8EE666A9FED4F6A67EEB7
:10310000867A76EEA77AF7EE006A77EEA67A27EE51
:10311000277A1BE007EE10CAF8EE476A9FED486A6F
:1031200086EE267A424B1B6CC3F3080306EE903AF8
:10313000F8EE666A9FED406A67EE867A76EEA77AC9
:10314000F7EE006A77EEA67A27EE277A384A136CF4
:10315000C3F3462307EE903AF8EE677AF7EE006A7B
:1031600077EEA67A87EE276ABCEEC66A80ED006A23
:10317000136CC3F3064307EE903AF8EE677A77EEE6
:10318000A67A87EE276ABCEEC66A80ED016A136CE8
:10319000C3F3066307EE903AF8EE677A77EEA67A05
:1031A000C7EE276AFCEEE66AC0ED026A5DF8044BE2
:1031B000704707EE10CAF8EE476A9FED226A86EE66
:1031C000267A1B4B1B6CC3F3080306EE903AF8EE0D
:1031D000666A9FED196A67EE867A76EEA77AF7EE51
:1031E000006A77EEA67A27EE277AAFE707EE10CAD5
:1031F000F8EE476A9FED126A86EE267A0C4B1B6C3E
:10320000C3F3080306EE903AF8EE666A9FED0A6A89
:1032100067EE867A76EEA77AF7EE006A77EEA67A00
:1032200027EE277A92E70023036043608360BDE7BF
:10323000004402580090D003000000390024744C70
:103240000024744A0024F44A10B4794B9A6A9C6AA8
:10325000C4F3051CD96A01F001015B6BC3F3CC0315
:1032600001FB03F314F47C7F00F0DD8002F0030225
:1032700007EE903AF8EE677A012A4BD0022A00F066
:103280009880002A40F0B280694B1B6813F0200F31
:1032900023D067490A68C2F3C102664BD34007EEE8
:1032A000103AF8EE476A07EE10CAB8EE476A86EEA3
:1032B000867A0B6BC3F3080306EE903AF8EE666A63
:1032C0009FED5D6A67EE867A76EEA77AF7EE006A82
:1032D00077EEA67A27EE277A38E007EE10CAF8EEE6
:1032E000476A9FED566A86EE267A514B1B6BC3F3F5
:1032F000080306EE903AF8EE666A9FED4F6A67EEB5
:10330000867A76EEA77AF7EE006A77EEA67A27EE4F
:10331000277A1BE007EE10CAF8EE476A9FED486A6D
:1033200086EE267A424B1B6BC3F3080306EE903AF7
:10333000F8EE666A9FED406A67EE867A76EEA77AC7
:10334000F7EE006A77EEA67A27EE277A384A136BF3
:10335000C3F3462307EE903AF8EE677AF7EE006A79
:1033600077EEA67A87EE276ABCEEC66A80ED006A21
:10337000136BC3F3064307EE903AF8EE677A77EEE5
:10338000A67A87EE276ABCEEC66A80ED016A136BE7
:10339000C3F3066307EE903AF8EE677A77EEA67A03
:1033A000C7EE276AFCEEE66AC0ED026A5DF8044BE0
:1033B000704707EE10CAF8EE476A9FED226A86EE64
:1033C000267A1B4B1B6BC3F3080306EE903AF8EE0C
:1033D000666A9FED196A67EE867A76EEA77AF7EE4F
:1033E000006A77EEA67A27EE277AAFE707EE10CAD3
:1033F000F8EE476A9FED116A86EE267A0C4B1B6B3E
:10340000C3F3080306EE903AF8EE666A9FED0A6A87
:1034100067EE867A76EEA77AF7EE006A77EEA67AFE
:1034200027EE277A92E70023036043608360BDE7BD
:10343000004402580090D003000000390024744C6E
:103440000024744A0024F44A00B58BB0A0F58073C0
:103450000B4328D0A0F580630B4377D0A0F5006321
:103460000B4300F0CE80A0F580530B4300F0268183
:10347000A0F500530B4300F08581A0F500230B431A
:1034800000F0CE81A0F580330B4300F01182A0F54F
:1034900080430B4300F02A82A0F50040084300F06F
:1034A0007B8200200CE0954B1B6D03F00703042B7F
:1034B00000F29C82DFE803F007111B03250090480F
:1034C0000BB05DF804FB8D4B186810F00070F7D05E
:1034D00007A8FFF7B9FE0898F2E7884B186810F0C4
:1034E0000060EDD004A8FFF7AFFC0498E8E7834B39
:1034F000186810F00050E3D001A8FFF7A5FD01986F
:10350000DEE77E4AD36C03F04053126812F0040FDA
:1035100007D033B9794B1B68C3F3C1037948D8404E
:10352000CEE7764A126812F4807F03D0B3F1805F51
:1035300000F05E82714A126812F4003F00F05A8275
:10354000B3F1005F00F058820020B9E76B4B9B6D30
:1035500003F46003B3F5800F33D016D9B3F5C00F71
:1035600000F04C82B3F5000F1FD1644AD36C03F016
:103570004053126812F0040F2ED06BBB5F4B1B68D8
:10358000C3F3C1035F48D8409AE783B1B3F5001F86
:1035900009D15A4B186810F0006091D004A8FFF7C9
:1035A00053FC04988CE700208AE7002088E7534BFF
:1035B000186810F0007083D007A8FFF745FE089840
:1035C0007EE74E4B186810F000503FF479AF01A829
:1035D000FFF73AFD019873E7484A126812F4807FBA
:1035E00003D0B3F1805F00F00B82444A126812F4FA
:1035F000003F00F00782B3F1005F00F00582002079
:103600005EE73E4B9B6D03F0E063B3F1007F35D086
:1036100016D9B3F1407F00F0F981B3F1806F20D16A
:10362000364AD36C03F04053126812F0040F30D0C6
:103630007BBB324B1B68C3F3C1033248D8403FE722
:103640008BB1B3F1807F0AD12C4B186810F0006069
:103650003FF436AF04A8FFF7F7FB049830E70020EB
:103660002EE700202CE7254B186810F000703FF47F
:1036700027AF07A8FFF7E8FD089821E71F4B186858
:1036800010F000503FF41CAF01A8FFF7DDFC0198DB
:1036900016E71A4A126812F4807F03D0B3F1805FF4
:1036A00000F0B681154A126812F4003F00F0B281B2
:1036B000B3F1005F00F0B081002001E70F4B1B6DFC
:1036C00003F4E043B3F5005F3CD01DD9B3F5405F90
:1036D00000F0A481B3F5804F27D1084AD36C03F0E2
:1036E0004053126812F0040F37D0002B35D1034B32
:1036F0001B68C3F3C1030348D840E1E60044025805
:103700000080BB000090D0038BB1B3F5805F0AD17D
:103710009D4B186810F000603FF4D2AE04A8FFF78C
:1037200093FB0498CCE60020CAE60020C8E6964B3E
:10373000186810F000703FF4C3AE07A8FFF784FDCF
:103740000898BDE6904B186810F000503FF4B8AEF2
:1037500001A8FFF779FC0198B2E68B4A126812F4CF
:10376000807F03D0B3F1805F00F05A81864A1268EF
:1037700012F4003F00F05681B3F1005F00F0548175
:1037800000209DE6804B1B6D03F4E023B3F5403F22
:1037900032D00BD8B3F5803F18D0B3F5003F20D01E
:1037A00013B9FEF7F7FC8BE6002089E6B3F5802F0E
:1037B0002ED0B3F5A02F07D1734B186810F400304A
:1037C0003FF47EAE71487BE6002079E66E4B1868C8
:1037D00010F000603FF474AE04A8FFF735FB0598C5
:1037E0006EE6694B186810F000503FF469AE01A80E
:1037F000FFF72AFC029863E6634B186810F0040098
:103800003FF45EAE1B68C3F3C1036148D84057E67E
:103810005D4B186810F480703FF452AE5D484FE67F
:10382000594B9B6D03F44033B3F5803F10D0B3F593
:10383000003F18D0002B40F0F980534B186810F06F
:1038400000603FF43DAE04A8FFF7FEFA049837E6A7
:103850004D4B186810F000503FF432AE01A8FFF74E
:10386000F3FB03982CE6484AD36C03F040531268EC
:1038700012F0040F07D033B9434B1B68C3F3C103E5
:103880004348D8401CE6404A126812F4807F03D0B7
:10389000B3F1805F00F0CC803B4A126812F4003F25
:1038A00000F0C880B3F1005F00F0C680002007E69A
:1038B000354BDB6C13F4803302D063B90020FFE595
:1038C000314B186810F000703FF4FAAD07A8FFF70D
:1038D000BBFC0898F4E52C4B186810F000603FF42E
:1038E000EFAD04A8FFF7B0FA0698E9E5264B9B6D0B
:1038F00003F0E043B3F1405F32D00BD8B3F1805F07
:1039000018D0B3F1005F20D013B9FFF78BFAD7E5D9
:103910000020D5E5B3F1804F2ED0B3F1A04F07D1F1
:10392000194B186810F400303FF4CAAD1748C7E5CA
:103930000020C5E5144B186810F000603FF4C0ADDE
:1039400004A8FFF781FA0598BAE50F4B186810F044
:1039500000503FF4B5AD01A8FFF776FB0298AFE544
:10396000094B186810F004003FF4AAAD1B68C3F3BC
:10397000C1030748D840A3E5034B186810F48070D2
:103980003FF49EAD03489BE50044025800127A00C4
:103990000090D00300093D00294B1B6D03F04053FC
:1039A000B3F1805F0CD0B3F1005F14D0002B45D190
:1039B000234B186810F400303FF482AD21487FE5B6
:1039C0001F4B186810F000703FF47AAD07A8FFF79E
:1039D0003BFC089874E51A4B186810F000603FF43F
:1039E0006FAD04A8FFF730FA059869E5002067E598
:1039F000154865E5002063E5124861E513485FE579
:103A000011485DE500205BE50E4859E50F4857E594
:103A10000D4855E5002053E50A4851E50B484FE5B0
:103A200009484DE500204BE5064849E5002047E5FB
:103A3000054845E5002043E5024841E500203FE513
:103A40000044025800127A0000093D000080BB00CB
:103A5000F0B583B000236BE085685E000324B440BA
:103A600025EA0405CC68B4402C438460456825EA07
:103A70000C054C68C4F300149C402C43446069E07E
:103A8000DD08083550F8254003F0070C4FEA8C0C90
:103A90004FF00F0E0EFA0CFE24EA0E0E0C6904FA1B
:103AA0000CF444EA0E0440F825406BE0092400E0E1
:103AB000002404FA0EF42C430CF1020C664D45F878
:103AC0002C404FF0B0442568D44325EA02064F68E5
:103AD00017F4801F01D042EA05064FF0B0452E6072
:103AE0006D6804EA05064F6817F4001F01D042EA2A
:103AF00005064FF0B0456E60D5F8845004EA05061F
:103B00004F6817F4003F01D042EA05064FF0B04578
:103B1000C5F88460D5F880502C404E6816F4803F7C
:103B200001D042EA05044FF0B042C2F880400133B0
:103B30000A6832FA03F400F08C804FF0010C0CFAA2
:103B400003FC1CEA0202F2D04C6804F00304013CBE
:103B5000012C81D94C6804F00304032C0CD0C468F8
:103B60005D004FF0030C0CFA05FC24EA0C0C8C6889
:103B7000AC4044EA0C04C4604C6804F00304022C1A
:103B80003FF47EAF04684FEA430E4FF0030C0CFA8B
:103B90000EFC24EA0C0C4C6804F0030404FA0EF446
:103BA00044EA0C0404604C6814F4403FBFD02B4C32
:103BB000D4F8F45045F00205C4F8F450D4F8F440B9
:103BC00004F002040194019C4FEA930C0CF10205ED
:103BD000214C54F8255003F0030E4FEA8E0E0F24AB
:103BE00004FA0EF425EA04051D4CA0423FF460AF30
:103BF00004F58064A0421ED004F58064A0421CD06D
:103C000004F58064A0421AD004F58064A04218D064
:103C100004F58064A04216D004F58064A04214D05C
:103C200004F58064A04212D004F50064A0423FF481
:103C30003DAF0A243DE701243BE7022439E7032492
:103C400037E7042435E7052433E7062431E7072462
:103C50002FE703B0F0BD00BF000400580044025835
:103C6000000002580AB18161704709048161704700
:103C7000436901EA030221EA030141EA0241816149
:103C800070470000F0B4876D0468664E664DAC4224
:103C900018BFB44242D01835AC423FD01835AC42C0
:103CA0003CD01835AC4239D01835AC4236D0183536
:103CB000AC4233D01835AC4230D005F55675AC4225
:103CC0002CD01835AC4229D01835AC4226D0183546
:103CD000AC4223D01835AC4220D01835AC421DD0B0
:103CE0001835AC421AD01835AC4217D04F4DAC4203
:103CF00014D01435AC4211D01435AC420ED014356A
:103D0000AC420BD01435AC4208D01435AC4205D0CF
:103D10001435AC4202D01435AC4207D1446E856EE6
:103D20006560C46E14B1046F456F656004683D4EF4
:103D30003D4DAC4218BFB44252D01835AC424FD0C2
:103D40001835AC424CD01835AC4249D01835AC428D
:103D500046D01835AC4243D01835AC4240D005F5BA
:103D60005675AC423CD01835AC4239D01835AC420F
:103D700036D01835AC4233D01835AC4230D0183577
:103D8000AC422DD01835AC422AD01835AC4227D0E1
:103D9000264E274DAC4218BFB44211D0254DAC423F
:103DA0000ED01435AC420BD01435AC4208D01435CB
:103DB000AC4205D01435AC4202D01435AC4224D10B
:103DC000C46D04F01F050124AC407C60046863608E
:103DD0008368402B20D0036899600368DA6014E0A0
:103DE000C46D04F01F0C3F2404FA0CF4BC60056899
:103DF0002C6824F480242C60046863608368402B62
:103E000005D0036899600368DA60F0BC7047036806
:103E10009A600368D960F8E703689A600368D9601C
:103E2000F3E700BF10000240280002400854025887
:103E30001C5402583054025803682749274A9342B9
:103E400018BF8B422FD0183293422CD01832934295
:103E500029D01832934226D01832934223D01832F8
:103E6000934220D0183293421DD002F556729342ED
:103E700019D01832934216D01832934213D0183208
:103E8000934210D0183293420DD0183293420AD088
:103E90001832934207D01832934204D023F0FF0324
:103EA0008365806D704710B4D9B210390C4AA2FBFB
:103EB0000142C2F302120B4CA25CC2655F2907D912
:103EC0006FF3090304338365806D5DF8044B70471D
:103ED0006FF309038365F7E71000024028000240F2
:103EE000ABAAAAAAA076000883699BB9836A012BB2
:103EF0000AD0022B02D00BB100207047C36A13F026
:103F0000807F2AD100207047C36AB3F1C07F26D0DA
:103F100000207047B3F5005F0AD0836A022B26D9D0
:103F2000032B26D1C36A13F0807F24D10020704771
:103F3000836A032B03D8DFE803F01404140A00207B
:103F40007047C36A13F0807F0DD100207047C36AA9
:103F5000B3F1C07F09D000207047012070470120D5
:103F600070470120704701207047012070470120F1
:103F70007047002070470120704700000368214906
:103F8000214A934218BF8B4227D01432934224D047
:103F90001432934221D0143293421ED014329342F1
:103FA0001BD01432934218D01432934215D0DAB297
:103FB000103A1649A1FB0212120915491944A82901
:103FC0001ED9144B13449B000366134B436602F047
:103FD0001F020123934083667047DBB2083B0F4A00
:103FE000A2FB03230E4A02EB1312920002660D4A53
:103FF0004266C3F30413012202FA03F38366704797
:104000000832DEE7085402581C540258ABAAAAAA88
:10401000F0FBFDBF0082001080080240CDCCCCCC6C
:10402000009600168058025801794A1E072A2BD89C
:1040300030B40368154D164CA34218BFAB4218D0DC
:104040001434A34215D01434A34212D01434A34222
:104050000FD01434A3420CD01434A34209D014342A
:10406000A34206D00B4B0B449B00C3660A4B03676D
:1040700005E00A4B0B449B00C366094B0367012311
:104080009340436730BC7047704700BF08540258E4
:104090001C5402583F820010400902403F9600160F
:1040A0004059025870B5044600F03CFF002C00F067
:1040B000B781054623685349534A934218BF8B4240
:1040C0000CBF0121002150D0183293424DD018323C
:1040D00093424AD01832934247D01832934244D088
:1040E0001832934241D0183293423ED002F55672B4
:1040F00093423AD01832934237D01832934234D098
:104100001832934231D0183293422ED01832934253
:104110002BD01832934228D01832934225D03B49F5
:104120003B4A934218BF8B4200F03281394A934296
:1041300000F02E811432934200F02A81143293420F
:1041400000F026811432934200F02281143293420F
:1041500000F01E811432934200F01A8140236365FF
:10416000032384F8353001204AE0022284F8352008
:10417000002284F8342079BB274A93422CD018328D
:10418000934229D01832934226D01832934223D03A
:104190001832934220D0183293421DD002F5567245
:1041A000934219D01832934216D01832934213D04A
:1041B0001832934210D0183293420DD018329342E5
:1041C0000AD01832934207D01832934204D01A68AA
:1041D00022F001021A6003E01A6822F001021A605C
:1041E00023681A6812F0010F18D000F09BFE431BE1
:1041F000052BF5D920236365032384F8353001208E
:1042000070BD00BF10000240280002400854025850
:104210001C54025830540258400002401A68814928
:104220001140A268E06802432069024360690243CA
:10423000A0690243E0690243206A02430A43616ABB
:10424000042900F090806168522900F296803F298D
:10425000C0F08E803F39744820FA01F111F0010F4F
:1042600001D042F480121A602668756925F00705AE
:10427000636A1D43042B08D1A36A1D43E36A23B17B
:104280002046FFF731FE00287CD175612046FFF7FC
:10429000D3FDE36D03F01F023F2393408360236847
:1042A0006249634A934218BF8B4242D0183293420C
:1042B0003FD0183293423CD01832934239D0183252
:1042C000934236D01832934233D01832934230D0D2
:1042D00002F5567293422CD01832934229D01832EC
:1042E000934226D01832934223D01832934220D0E2
:1042F000183293421DD0183293421AD0183293428A
:1043000017D04C4A934214D01432934211D0143235
:1043100093420ED0143293420BD01432934208D001
:104320001432934205D01432934202D01432934295
:1043300013D12046FFF722FEA368802B63D0236EA3
:1043400022791A60636EA26E5A606368013B072B84
:104350005CD90023E366236763670020606501235F
:1043600084F835304CE7E16A206B01430A436AE781
:10437000293905293FF677AF73E7743903293FF6EA
:1043800072AF6EE740236365012084F8350037E79C
:10439000022284F83520002284F8342019686FF353
:1043A0001011A268402A2CD0802A27D00022E06871
:1043B00042EAD002206942EAD002606942EAD002B1
:1043C000A06942EAD002E06942EAD002206A42EAE9
:1043D00010120A431A602268174B1344174AA2FBB3
:1043E00003231B099B00E3652046FFF725FDE26DD3
:1043F00002F01F0101228A40426050E74FF48042E0
:10440000D5E71022D3E70023636098E72046FFF743
:104410000BFEE36E00221A60236F626F5A609CE706
:104420000120EDE63F8010FE0F030F001000024058
:104430002800024008540258F8ABFDA7CDCCCCCCE4
:10444000002800F03D8170B5044690F83400012842
:1044500000F03881012084F8340094F835000128F8
:1044600007D04FF400636365002384F834300120E3
:1044700070BD022084F83500002060652068924EEF
:10448000924DA84218BFB0422FD01835A8422CD068
:104490001835A84229D01835A84226D01835A84288
:1044A00023D01835A84220D01835A8421DD005F5D4
:1044B0005675A84219D01835A84216D01835A8420A
:1044C00013D01835A84210D01835A8420DD0183591
:1044D000A8420AD01835A84207D01835A84204D0FF
:1044E000056825F00105056003E0056825F0010574
:1044F00005602046FFF7C6FB23687349734A934261
:1045000018BF8B4238D01832934235D018329342BC
:1045100032D0183293422FD0183293422CD0183216
:10452000934229D01832934226D002F55672934214
:1045300022D0183293421FD0183293421CD0183226
:10454000934219D01832934216D01832934213D0A6
:104550001832934210D0183293420DD01A6822F0CC
:104560000E0242F00A021A60236C93B122681368AB
:1045700043F0040313600CE01A6822F01E0242F0BC
:1045800016021A60236C23B12268136843F00803F3
:10459000136023684C494D4A934218BF8B4242D066
:1045A000183293423FD0183293423CD01832934293
:1045B00039D01832934236D01832934233D0183261
:1045C000934230D002F5567293422CD01832934267
:1045D00029D01832934226D01832934223D0183271
:1045E000934220D0183293421DD0183293421AD0F1
:1045F0001832934217D0364A934214D01432934261
:1046000011D0143293420ED0143293420BD0143294
:10461000934208D01432934205D01432934202D010
:10462000143293420ED1236E1A6812F4803F03D0E5
:104630001A6842F480721A60E36E1BB11A6842F481
:1046400080721A6023682049204A934218BF8B4227
:1046500030D0183293422DD0183293422AD01832DB
:10466000934227D01832934224D01832934221D05B
:10467000183293421ED002F5567293421AD0183265
:10468000934217D01832934214D01832934211D06B
:10469000183293420ED0183293420BD01832934204
:1046A00008D01832934205D01A6842F001021A600D
:1046B0000020DDE61A6842F001021A600020D7E609
:1046C000012070470220D3E610000240280002407B
:1046D00008540258F0B583B00446002301937D4B83
:1046E0001D687D4BA3FB0535AD0A876D3E68D7F885
:1046F00000C0036879497A48834218BF8B420CBFD7
:104700000120002061D0774A93425ED01832934254
:104710005BD01832934258D01832934255D0183299
:10472000934252D0183293424FD002F556729342C0
:104730004BD01832934248D01832934245D01832A9
:10474000934242D0183293423FD0183293423CD029
:104750001832934239D01832934236D06249634AB4
:10476000934218BF8B4212D0614A93420FD0143249
:1047700093420CD01432934209D01432934206D0A3
:104780001432934203D01432934240F05F821A688D
:10479000E16D01F01F010420884010EA0C0F00F0C9
:1047A000A58212F0040F00F0A182786012F4004F8D
:1047B00000F0588212F4803F40F04E82A36C002B30
:1047C00000F044822046984740E2E26D02F01F016B
:1047D00008228A40324241D070BB424A93422BD0D9
:1047E0001832934228D01832934225D0183293427F
:1047F00022D0183293421FD0183293421CD002F5B7
:104800005672934218D01832934215D01832934200
:1048100012D0183293420FD0183293420CD0183273
:10482000934209D01832934206D01832934203D0F3
:104830001A68C2F3C00202E01A68C2F380026AB1C9
:104840001A6822F004021A60E36D03F01F020823C5
:104850009340BB60636D43F001036365E26D02F05A
:104860001F0226FA02F313F0010F47D023681B48FA
:104870001B498B4218BF83423CD018318B4239D040
:1048800018318B4236D018318B4233D018318B42DD
:1048900030D018318B422DD018318B422AD001F5FF
:1048A00056718B4226D018318B4223D018318B425F
:1048B00020D018318B421DD018318B421AD01831BC
:1048C0008B4217D018318B4214D018318B4211D043
:1048D0001B6813E004000020B5814E1B100002404D
:1048E0002800024040000240085402581C5402585C
:1048F000305402585B6913F0800F3BD1E36D03F035
:104900001F03042202FA03F333423FD02268954882
:1049100095498A4218BF824234D018318A4231D038
:1049200018318A422ED018318A422BD018318A424F
:1049300028D018318A4225D018318A4222D001F578
:1049400056718A421ED018318A421BD018318A42D1
:1049500018D018318A4215D018318A4212D0183135
:104960008A420FD018318A420CD018318A4209D0BD
:1049700013680BE001239340BB60636D43F00203B7
:104980006365BBE7126812F0020F3DD1E36D03F0DF
:104990001F03102202FA03F333425FD022687148EA
:1049A00071498A4218BF824234D018318A4231D0CC
:1049B00018318A422ED018318A422BD018318A42BF
:1049C00028D018318A4225D018318A4222D001F5E8
:1049D00056718A421ED018318A421BD018318A4241
:1049E00018D018318A4215D018318A4212D01831A5
:1049F0008A420FD018318A420CD018318A4209D02D
:104A00001268C2F3800208E0BB60636D43F00403E8
:104A10006365BBE71268C2F3C002FAB1BB602368EA
:104A20001A6812F4802F0DD01B6813F4002F04D1E4
:104A3000236C9BB12046984710E0A36C73B12046CD
:104A400098470BE01A6812F4807F03D11A6822F0AD
:104A500008021A60236C0BB120469847E36D03F0FF
:104A60001F03202202FA03F3334200F091802268F0
:104A70003C483D498A4218BF82422ED018318A42B2
:104A80002BD018318A4228D018318A4225D01831CB
:104A90008A4222D018318A421FD018318A421CD053
:104AA00001F556718A4218D018318A4215D0183152
:104AB0008A4212D018318A420FD018318A420CD063
:104AC00018318A4209D018318A4206D018318A42F8
:104AD00003D01268C2F3400202E01268C2F300126F
:104AE000002A55D0BB6094F83530042B0ED02368D3
:104AF0001A6812F4802F39D01B6813F4002F2CD1C0
:104B0000636C002B44D02046984741E0226813682C
:104B100023F0160313602268536923F08003536166
:104B2000236CB3B12268136823F008031360E36DAC
:104B300003F01F023F239340BB60012384F835300C
:104B4000002384F83430236D002B7FD02046984713
:104B50007CE0A36C002BE5D1E9E7E36BC3B1204611
:104B6000984715E010000240280002401A6812F42D
:104B7000807F09D11A6822F010021A60012384F89C
:104B80003530002384F83430E36B0BB1204698476E
:104B9000636D002B5AD0636D13F0010F52D00423C4
:104BA00084F8353023689649964A934218BF8B4261
:104BB0002FD0183293422CD01832934229D0183279
:104BC000934226D01832934223D01832934220D0F9
:104BD000183293421DD002F55672934219D0183202
:104BE000934216D01832934213D01832934210D009
:104BF000183293420DD0183293420AD018329342A1
:104C000007D01832934204D01A6822F001021A60C9
:104C100003E01A6822F001021A60019B013301933C
:104C2000AB4204D823681B6813F0010FF5D1236849
:104C30001B6813F0010F0BD0032384F835300023D9
:104C400084F83430E36C0BB12046984703B0F0BDD4
:104C5000012384F83530F2E7236C002BF6D0204690
:104C60009847F3E712F0200F3AD123686449654A68
:104C7000934218BF8B422FD0183293422CD0183257
:104C8000934229D01832934226D01832934223D02F
:104C90001832934220D0183293421DD002F556723A
:104CA000934219D01832934216D01832934213D03F
:104CB0001832934210D0183293420DD018329342DA
:104CC0000AD01832934207D01832934204D01A689F
:104CD00022F004021A6003E01A6822F008021A6047
:104CE000236C002BB2D020469847AFE702208840C3
:104CF00010EA0C0F60D012F0020F5DD0786012F451
:104D0000004F0ED012F4803F05D1636C002B9DD074
:104D1000204698479AE7E36B002B97D020469847A8
:104D200094E712F0200F40D123683549354A934269
:104D300018BF8B422FD0183293422CD01832934296
:104D400029D01832934226D01832934223D01832F9
:104D5000934220D0183293421DD002F556729342EE
:104D600019D01832934216D01832934213D0183209
:104D7000934210D0183293420DD0183293420AD089
:104D80001832934207D01832934204D01A6822F0A6
:104D90000A021A6003E01A6822F014021A60012362
:104DA00084F83530002384F83430E36B002B3FF473
:104DB0004DAF2046984749E7082000FA01F111EA73
:104DC0000C0F3FF443AF12F0080F3FF43FAF1A68E7
:104DD00022F00E021A60E36D03F01F03012202FAB3
:104DE00003F37B60626584F83520002384F8343057
:104DF000E36C002B3FF42AAF2046984726E700BF1C
:104E00001000024028000240406D7047134BDB68E1
:104E100013F0040F07D1114BDB6803F00703834243
:104E20001AD00120704710B50C4AD36823F007034D
:104E30000343D36000F076F80446084B5B6813F434
:104E4000005F07D100F06EF8001BB0F57A7FF4D94F
:104E5000012000E0002010BD0020704700480258EB
:104E6000104B1B780BB90120704710B504464FF466
:104E70007A70B0FBF3F30C4A1068B0FBF3F0FCF768
:104E800015FB68B90F2C01D901200AE00022214648
:104E90004FF0FF30FCF7F6FA044B1C60002000E0F6
:104EA000012010BD0C000020040000201000002094
:104EB00010B50320FCF7D4FAFCF704FF0F498B6907
:104EC000C3F303230E4AD35C03F01F03D8408B695E
:104ED00003F00F03D35C03F01F0320FA03F3094A26
:104EE0001360094B18600020FFF7BAFF10B10124CE
:104EF000204610BD0446FBF767FDF9E70044025861
:104F00007C7600080000002004000020034B1B7882
:104F1000034A11680B441360704700BF0C00002067
:104F200054360020014B1868704700BF54360020EB
:104F300038B50446FFF7F6FF0546B4F1FF3F02D04F
:104F4000044B1B781C44FFF7EDFF401BA042FAD333
:104F500038BD00BF0C00002018B121B942600846DE
:104F60007047012070470120704710B10160002098
:104F7000704701207047000010B50368C3F3014279
:104F800003F01F03012199401301044A9C580C426D
:104F900003D09950436803B1984710BD880000586A
:104FA00084460020CCF84400CCF84C00DCF8040027
:104FB000022818BF00281FD10020CCF850004FF461
:104FC0008030CCF85C004FF6FF70CCF87400002005
:104FD000CCF86800CCF8703013F0010F68D179B9C3
:104FE000CCF860004FF48020CCF86400032A3ED84F
:104FF000DFE802F00E3F1F2E0120CCF85000DEE764
:105000004FF40030CCF860000020CCF86400EDE7ED
:105010008020CCF848005B085801CCF854001B01F4
:10502000CCF858304023CCF86C300020022941D015
:105030007047C020CCF848005B089801CCF85400B9
:105040005B01CCF858308023CCF86C300020EDE7C1
:10505000E020CCF848005B089801CCF854005B01D4
:10506000CCF858308023CCF86C300020DEE70120EB
:10507000DCE710B48020CCF848005B089C01CCF839
:1050800054405B01CCF85830CCF86C000020022969
:1050900002D05DF8044B7047012A05D0022AF8D1EE
:1050A0000823CCF86830F4E71023CCF86830F0E738
:1050B00001207047012A05D0022AB9D10823CCF873
:1050C000683070471023CCF86830704730B4002443
:1050D0004464C4644468022C18BF002C18D1012415
:1050E00004650024C4654FF4003505664FF480253F
:1050F0004566846603674FF6FF74446704290AD047
:105100000D218165032A29D8DFE802F00811182053
:1051100000240465E5E701218165F3E780228264CC
:105120001B0143654023C366002030BC70478022CA
:1051300082645B014365C2660020F6E7C022826498
:105140005B0143658023C3660020EEE7E0228264B2
:105150005B0143658023C3660020E6E70120E4E7A6
:1051600001290AD00123426C082A08D04268023A79
:10517000012A0CD943F0040070470923F3E7426881
:10518000012A18BF032AF1D143F01003EEE743F0E0
:10519000600070470E4B1B680E4AA2FB03231B0BDB
:1051A0009B0001680A6822F480320A603BB1013B2F
:1051B0000268126812F4803FF8D100207047D0F8DE
:1051C000943043F04003C0F894300320704700BF90
:1051D000040000201BECCB95F8B5002800F05E81A0
:1051E000044690F83850012D15D02368AE49AF4AD7
:1051F000934218BF8B421ED001F1C051A1F58231FC
:1052000002F1C052A2F58232934218BF8B4240F0A5
:105210004781A74E10E00368A349A64A8B4218BFF6
:10522000934240F0EA804368012B40F0E680436CF3
:10523000002BDAD0E1E0A04E94F891308BB12046FB
:10524000FFF7A8FF0546002840F02C81022384F8D0
:105250009130E368012B0AD0022B40F0D08020224D
:1052600006E084F890302046FBF71EFFE7E71022A7
:10527000A368022B00F0CA80052B00F0C280012B2E
:1052800040F0C7804FF480673260236A002B37D02C
:1052900023688549854A934218BF8B4200F0BB8042
:1052A00000202268834B9A4200F0BB802268834B27
:1052B0009A4200F0BC80A369B3F5002F00F0BD80D6
:1052C000A36AB3F1806F00F0CC80012200EB800074
:1052D0004000236A02FB03F31B02B0FBF3F0784BA0
:1052E000A3FB0023DB08636203EB8302A0EB420015
:1052F000082801D901336362636C042B00F0B3808A
:105300006368022B18BF002B40F0B480236D012B83
:1053100000F0AD804FF4007C22681168694B0B40AF
:10532000136021680A686368606C0343A06C0343E0
:10533000E06C034343EA0C033B43E06A03436069C8
:105340000343A0690343606A43EA0053A06A03432E
:10535000206903431A430A60226851685A4B0B4084
:10536000536021684A68E369206B0343606B034321
:1053700013434B6022689168544B0B409360206844
:105380008268636D013B616E0B43E16D0B43216EDF
:105390000B43A16D013943EA012313438360226863
:1053A000D36823F47D6323F00F031B041B0CD3602D
:1053B0002068C268A36EE16E0B43616F43EA01434C
:1053C000216F013943EA01231343C360236836493F
:1053D000384A934218BF8B4207D1736C23F0010304
:1053E000736494F83830012B4DD00023C4F8943006
:1053F000012284F8912084F890302846F8BD0022DC
:1054000036E742F003024FF400673DE74FF40067D0
:105410003AE7002738E74FF480700021FEF714F8D0
:105420003FE74FF480600021FEF70EF83EE74FF4AF
:1054300000600021FEF708F83DE7636C042B0BD0F9
:10544000082B0BD0626D00EB80004000236A02FB4A
:1054500003F3B0FBF3F042E74022F4E74FF480722D
:10546000F1E7022232E7636A5B08636248E74FF0C4
:10547000000C51E7236D012B02D04FF0000C4BE7DD
:105480004FF4007C48E7236CE26B013A43EA0213D5
:105490007364736C43F001037364A6E70125ACE702
:1054A0000125AAE70125A8E7045801402458014036
:1054B0000054005804540058005801402454005827
:1054C000CDCCCCCC10C005F0F01FFFFF0080F8FF62
:1054D00010B50446022906D9C81E01280BD820465B
:1054E000FFF7F4FD01E0FFF75BFD00B110BD2046C2
:1054F000FFF772FEFAE70120F8E7000070B5002A16
:1055000018BF002950D0044690F89130DDB2012B2D
:105510004DD190F89030012B4BD0012380F8903082
:105520008167A0F87C20A0F87E200023C0F894308A
:10553000222280F89120D0F884201F491164D0F8ED
:1055400084201E49D163D0F884201D49D164D0F84D
:10555000842013650168B0F87C30826F1C31D0F86C
:105560008400FEF76DFF064618B1002384F89030E2
:105570001BE000212046FFF7F3FD22681369034377
:1055800013612268136843F40033136023681A68B8
:1055900012F4803F03D11A6842F480321A6000236B
:1055A00084F89030354600E00125284670BD02257C
:1055B000FBE70225F9E700BFFF550008C5550008C5
:1055C0000B56000810B5846BC369B3F5807F12D009
:1055D0002268136823F4003313600021A4F87E10BE
:1055E0002046FFF7BDFD2268136923EA000313611B
:1055F000012384F891302046FBF7F2FA10BD08B57C
:10560000806BFBF7DDFA08BD704710B5846BFFF7C0
:10561000FBFB022800D110BDD4F8943043F0800386
:10562000C4F894302268136823F4003313602046D2
:10563000FFF7B0FD012384F891300023A4F87E30F9
:105640002046FFF7E1FFE6E7C36B5B09C06808305F
:10565000C00803FB00007047002800F0B78070B559
:1056600004460023836205685C4B5D4E9D4218BF73
:10567000B54214BF0126002607D0A3F574439D420E
:1056800003D0C3680F2B00F2A3802046FFF7DCFF96
:105690002EB1544B9D4202D0082800F29B804F4A05
:1056A0004F4B9D4218BF954203D003F580639D4246
:1056B00002D1102800F2908094F88130F3B10223D7
:1056C00084F881302268136823F001031360236893
:1056D0009A6802F4F812A169B1F1806F14D063687E
:1056E00013F4800F23D0E368062B20D921680B68C0
:1056F00023F48073206D03430B601DE084F8803039
:105700002046FBF753F8DAE76168B1F5800F06D061
:105710000029E4D1A16BB1F1805FE0D102E0A06B80
:105720000028F5D1196841F480511960D7E7216844
:105730000B6823F480730B60E369A16A0B43134386
:10574000E26B1343E16822680B439360636B626A08
:105750001343A26B1343A269134322691343626983
:105760001343226A134362681343E26C1343A26833
:105770001343A26C1343A16D22680B43D36063688B
:105780006BB92268936823F4C05343F400639360B9
:105790002268936823F4C06343F4806393602268B3
:1057A000136D23F001031365636813F4800F06D0B3
:1057B0002268D36823F00043616D0B43D36000205F
:1057C000C4F88400012384F8813070BD0120704743
:1057D0000120FAE70120F8E70120F6E70030014058
:1057E00000380040003C0040026852E8003F23F4CB
:1057F000907342E800310029F6D1026802F10803F3
:1058000053E8001F0D4B0B40083242E800310029DD
:10581000F3D1C36E012B06D02023C0F88C300023B7
:10582000C36643677047026852E8003F23F01003E5
:1058300042E800310029F6D1EEE700BFFEFFFFEF9E
:1058400070B586B004468368026913434269134306
:10585000C269134301680868904A02401A430A600B
:105860002268536823F44053E1680B435360A169F5
:1058700022688B4B9A4201D0236A19439068894B66
:1058800003400B4393602268D36A23F00F03616ADD
:105890000B43D3622368844A934229D0834A9342BC
:1058A00000F09480824A934200F0AA80814A934299
:1058B00000F0C080804A934200F0D6807F4A934235
:1058C00000F008817E4A934200F02D817D4A934288
:1058D00000F040817C4A934200F053817B4A93421E
:1058E00000F078816E4A934200F09D8180223BE077
:1058F000774A526D02F03802282A34D8DFE812F0D5
:105900002900330033003300330033003300330009
:10591000AB01330033003300330033003300330076
:105920002B003300330033003300330033003300E7
:105930002D003300330033003300330033003300D5
:105940002F003300330033003300330033003300C3
:105950003100012208E0082206E0102204E02022A3
:1059600002E0402200E080224D498B4200F08C8111
:10597000E069B0F5004F00F00282202A00F25A825E
:10598000202A00F2A482DFE812F071027702A2025C
:10599000A2027A02A202A202A2027F02A202A20232
:1059A000A202A202A202A202A2028402A202A202F5
:1059B000A202A202A202A202A202A202A202A202C7
:1059C000A202A202A202A202A2029002404A526DC8
:1059D00002F00702052A11D8DFE812F006003F01A5
:1059E00008000A000C000E000022BDE70822BBE7F9
:1059F0001022B9E72022B7E74022B5E78022B3E7BB
:105A0000334A526D02F00702052A11D8DFE812F07E
:105A10000600270108000A000C000E000022A3E780
:105A20000822A1E710229FE720229DE740229BE762
:105A3000802299E7264A526D02F00702052A11D802
:105A4000DFE812F006000F0108000A000C000E004B
:105A5000002289E7082287E7102285E7202283E7D2
:105A6000402281E780227FE7194A526D02F0070247
:105A7000052A11D8DFE812F00600F70008000A0036
:105A80000C000E0000226FE708226DE710226BE782
:105A9000202269E7402267E7802265E7F369FFCFAC
:105AA000000C0058FFF4FF110010014000440040BA
:105AB00000480040004C00400050004000140140ED
:105AC00000780040007C004000180140001C0140AC
:105AD00000440258694A526D02F03802282A20D840
