:020000040800F2
:10000000000002203D4B00088D0800088F08000802
:1000100091080008930800089508000800000000F7
:100020000000000000000000000000009708000829
:1000300099080008000000009B0800089D080008BF
:10004000914B0008914B0008914B0008914B000820
:10005000914B0008914B0008914B0008914B000810
:10006000914B0008914B0008914B0008914B000800
:10007000914B0008914B0008914B0008914B0008F0
:10008000914B0008914B0008914B0008914B0008E0
:10009000914B0008914B0008914B0008914B0008D0
:1000A000914B0008914B0008914B0008914B0008C0
:1000B000914B0008914B0008914B0008914B0008B0
:1000C000914B0008914B0008914B0008914B0008A0
:1000D000914B0008914B0008914B0008914B000890
:1000E000A5080008914B000800000000914B000893
:1000F000914B0008914B0008914B0008914B000870
:10010000914B0008914B0008914B0008914B00085F
:10011000914B0008914B0008914B0008914B00084F
:10012000914B0008914B0008914B0008914B00083F
:10013000914B0008914B0008914B0008914B00082F
:1001400000000000000000000000000000000000AF
:10015000914B0008914B0008914B0008914B00080F
:10016000914B0008914B0008914B0008914B0008FF
:10017000914B0008914B0008914B000800000000D3
:10018000914B0008914B0008914B0008914B0008DF
:10019000914B0008914B0008914B0008914B0008CF
:1001A000914B0008914B0008914B000800000000A3
:1001B000914B0008914B0008914B0008914B0008AF
:1001C000914B0008914B0008000000000000000067
:1001D0000000000000000000914B0008000000003B
:1001E000000000000000000000000000000000000F
:1001F0000000000000000000914B0008914B000837
:10020000914B0008914B000800000000914B000842
:10021000914B0008914B0008914B0008914B00084E
:10022000914B000800000000914B00080000000006
:10023000914B0008914B000800000000914B000812
:10024000914B0008914B0008914B0008914B00081E
:10025000914B0008914B0008914B0008914B00080E
:10026000914B0008914B0008914B0008914B0008FE
:10027000914B0008914B0008914B000800000000D2
:10028000914B0008914B0008914B0008914B0008DE
:1002900000000000914B0008914B00080000000096
:1002A00000000000914B0008914B0008914B0008A2
:1002B000914B0008914B0008914B0008914B0008AE
:0C02C000914B0008914B0008914B000886
:1002CC0053B94AB9002908BF00281CBF4FF0FF31B1
:1002DC004FF0FF3000F00CB8ADF1080C6DE904CE16
:1002EC0004F07EFCDDF804E0DDE9022304B0704785
:1002FC00704700BF0348044B834202D0034B03B149
:10030C001847704714000020140000200000000063
:10031C000548064B1B1AD90F01EBA301491002D05B
:10032C00034B03B118477047140000201400002041
:10033C000000000010B5064C237843B9FFF7DAFF34
:10034C00044B13B10448AFF300800123237010BD9C
:10035C001400002000000000E44E000808B5054B16
:10036C001BB105490548AFF30080BDE80840FFF715
:10037C00CFBF00BF0000000018000020E44E0008B2
:10038C0030B585B00024009401940294039400F0DD
:10039C0073FF01238DF800308DF8014001941F226A
:1003AC008DF8082087228DF809208DF80A408DF8E9
:1003BC000B408DF80C308DF80D308DF80E408DF80B
:1003CC000F40684600F076FF042000F063FF05B094
:1003DC0030BD000070B59CB04C22002109A804F07F
:1003EC00D2FB2022002101A804F0CDFB022003F057
:1003FC0011FB002300931D4A936923F4404343F4FB
:10040C0000439361936903F440430093009B174BA3
:10041C009B6913F4005FFAD00223099301260C9612
:10042C0040240D94129300251395042114910C2251
:10043C00159216961791189319921A951B9509A84F
:10044C0001F020F83F230193032302930395082323
:10045C000493059406944FF48063079308943146F3
:10046C0001A801F0FDFB1CB070BD00BF0048025894
:10047C0010B5FFF785FF03F01FFBFFF7ABFF00F094
:10048C0039F800F097FA00F0C1FA00F081F800F0AA
:10049C00ABF800F0D5F800F069FB00F09BFB00F026
:1004AC006DFC00F09FFC002000F094FD012000F09A
:1004BC0091FD022000F08EFD0121002000F0DCFDFA
:1004CC0006494FF4E1330B6000244C600C814C81E5
:1004DC008C81204600F03EFE204610BD34000020EA
:1004EC0010B9024B01221A60704700BF3000002087
:1004FC007047000086B0254BD3F8E02042F0100284
:10050C00C3F8E020D3F8E02002F010020092009A29
:10051C00D3F8E02042F00402C3F8E020D3F8E02046
:10052C0002F004020192019AD3F8E02042F020027A
:10053C00C3F8E020D3F8E02002F020020292029AE5
:10054C00D3F8E02042F00102C3F8E020D3F8E02019
:10055C0002F001020392039AD3F8E02042F0020267
:10056C00C3F8E020D3F8E02002F002020492049ACF
:10057C00D3F8E02042F00802C3F8E020D3F8E030D2
:10058C0003F008030593059B06B07047004402581E
:10059C0008B51348134B03604FF4800343600023EA
:1005AC0083600322C260036143614FF08062826109
:1005BC00C361036243628362C3624FF08042426351
:1005CC008363C363036443648364C36403654365E7
:1005DC00836503F07BFC00B908BDFFF789FFFBE7DF
:1005EC00540100200030014008B51348134B036040
:1005FC004FF480034360002383600322C2600361D5
:10060C0043614FF080628261C36103624362836223
:10061C00C3624FF0804242638363C36303644364E9
:10062C008364C36403654365836503F04FFC00B9C1
:10063C0008BDFFF75DFFFBE7CC0000200038004051
:10064C0008B51348134B03604FF480034360002339
:10065C0083600322C260036143614FF08062826158
:10066C00C361036243628362C3624FF080424263A0
:10067C008363C363036443648364C3640365436536
:10068C00836503F023FC00B908BDFFF731FFFBE7DE
:10069C0044000020003C0040F0B5BDB004460021F1
:1006AC003791389139913A913B91B82208A804F0CE
:1006BC006AFA23686B4A934208D06B4A934238D04B
:1006CC006A4A934200F081803DB0F0BD4FF48052F5
:1006DC000023CDE9082308A801F05AFD30BB644B78
:1006EC00D3F8F02042F48052C3F8F020D3F8F02075
:1006FC0002F480520092009AD3F8E02042F00102FA
:10070C00C3F8E020D3F8E03003F001030193019B20
:10071C00E023379302233893002339933A9305232C
:10072C003B9337A9534803F065F8CDE7FFF7E0FE9C
:10073C00D5E74FF480520023CDE9082308A801F037
:10074C0027FD00283ED14A4BD3F8E82042F48042E2
:10075C00C3F8E820D3F8E82002F480420292029A0F
:10076C00D3F8E02042F00402C3F8E020D3F8E020F4
:10077C0002F004020392039AD3F8E02042F0020242
:10078C00C3F8E020D3F8E03003F002030493049B99
:10079C000623379302273897002439943A94052678
:1007AC003B9637AD2946344803F024F84FF4806368
:1007BC003793389739943A943B9629462F4803F04F
:1007CC0019F881E7FFF794FEBDE74FF48052002340
:1007DC00CDE9082308A801F0DBFC00283FD1244B0D
:1007EC00D3F8E82042F40042C3F8E820D3F8E8201C
:1007FC0002F400420592059AD3F8E02042F002027E
:10080C00C3F8E020D3F8E02002F002020692069A28
:10081C00D3F8E02042F00402C3F8E020D3F8E03033
:10082C0003F004030793079B04233793022638969F
:10083C00002439943A9407233B9337AD29460F484B
:10084C0002F0D8FF4FF440633793389639943A94BA
:10085C0006233B932946084802F0CCFF34E7FFF708
:10086C0047FEBCE70030014000380040003C00402F
:10087C0000440258000002580008025800040258B4
:10088C00FEE7FEE7FEE7FEE7FEE7704770477047BE
:10089C0008B503F03FF908BD08B5002000F032FCA4
:1008AC0008BD000082B0074BD3F8F42042F00202DE
:1008BC00C3F8F420D3F8F43003F002030193019B46
:1008CC0002B07047004402582B4AD2F8883043F4E7
:1008DC007003C2F88830294B1B6803F00F03062BFA
:1008EC0006D8264A136823F00F0343F0070313605E
:1008FC00234B1A6842F001021A6000221A6119682F
:10090C00204A0A401A601D4B1B6813F0080F06D0D2
:10091C001A4A136823F00F0343F007031360184BB4
:10092C0000229A61DA611A62174999621749D962F1
:10093C00174919635A639963DA6319645A6419681D
:10094C0021F4802119601A66D3F8D43013F4805F37
:10095C0010D10B4BD3F8D42042F48052C3F8D420DE
:10096C000C4A43F2D2011160D3F8D42022F4805205
:10097C00C3F8D420704700BF00ED00E00020005207
:10098C00004402587FEDF6EA000202020000FF016B
:10099C008002010100400052054AD36843F0020373
:1009AC00D360034B5B6813F4005FFAD0704700BF51
:1009BC000048025808B51248124B0360124B4360B2
:1009CC00002383600122C260036143618361C361C0
:1009DC00036200F09BFC50B90021094800F0FAFCBE
:1009EC0040B90021064800F022FD30B908BDFFF7E0
:1009FC007FFDF1E7FFF77CFDF3E7FFF779FDF5E706
:100A0C0030020020005400405D3E302008B51248F2
:100A1C00124B0360124B4360002383600122C260BF
:100A2C00036143618361C361036200F06FFC50B9E1
:100A3C000021094800F0CEFC40B90021064800F026
:100A4C00F6FC30B908BDFFF753FDF1E7FFF750FD99
:100A5C00F3E7FFF74DFDF5E7DC01002000580040FF
:100A6C005D3E302010B5B8B004460021339134916E
:100A7C00359136913791B82204A804F084F8236894
:100A8C00354A934204D0354A934233D038B010BD26
:100A9C0008220023CDE9042304A801F079FB30BB24
:100AAC002F4CD4F8E03043F00203C4F8E030D4F813
:100ABC00E03003F002030093009BC0233393122316
:100ACC0034930023359336930423379333A9254865
:100ADC0002F090FED4F8E83043F40013C4F8E83088
:100AEC00D4F8E83003F400130193019BCEE7FFF731
:100AFC00FFFCD5E708220023CDE9042304A801F06C
:100B0C0047FB30BB164CD4F8E03043F02003C4F85C
:100B1C00E030D4F8E03003F020030293029B03236F
:100B2C003393122334930023359336930423379352
:100B3C0033A90D4802F05EFED4F8E83043F480038C
:100B4C00C4F8E830D4F8E83003F480030393039B33
:100B5C009CE7FFF7CDFCD5E700540040005800405F
:100B6C0000440258000402580014025808B51748F3
:100B7C00174B03604FF4E133436000238360C36081
:100B8C0003610C2242618361C3610362436283622D
:100B9C0003F00BFF70B900210C4803F07EFF60B925
:100BAC0000210A4803F09EFF50B9084803F056FF95
:100BBC0048B908BDFFF79CFCEDE7FFF799FCEFE7A0
:100BCC00FFF796FCF1E7FFF793FCF2E71803002020
:100BDC00004C004008B51748174B03604FF4E13345
:100BEC00436000238360C36003610C224261836114
:100BFC00C36103624362836203F0D7FE70B90021C4
:100C0C000C4803F04AFF60B900210A4803F06AFF60
:100C1C0050B9084803F022FF48B908BDFFF768FC3B
:100C2C00EDE7FFF765FCEFE7FFF762FCF1E7FFF795
:100C3C005FFCF2E7840200200010014070B5BAB0EE
:100C4C000446002135913691379138913991B8226B
:100C5C0006A803F098FF2368434A934204D0434A02
:100C6C00934233D03AB070BD02220023CDE9062363
:100C7C0006A801F08DFA30BB3D4BD3F8E82042F4C6
:100C8C000022C3F8E820D3F8E82002F400220192F5
:100C9C00019AD3F8E02042F00102C3F8E020D3F827
:100CAC00E03003F001030293029B032335930223EC
:100CBC0036930023379338930823399335A92D485D
:100CCC0002F098FDCEE7FFF713FCD5E701220023D5
:100CDC00CDE9062306A801F05BFA002840D1244B8D
:100CEC00D3F8F02042F01002C3F8F020D3F8F02033
:100CFC0002F010020392039AD3F8E02042F00202B1
:100D0C00C3F8E020D3F8E02002F002020492049A27
:100D1C00D3F8E02042F00102C3F8E020D3F8E03031
:100D2C0003F001030593059B4FF400433593022612
:100D3C0036960024379438940423399335AD2946DC
:100D4C000D4802F057FD4FF40073359336963794E7
:100D5C003894072339932946064802F04BFD81E766
:100D6C00FFF7C6FBBBE700BF004C00400010014082
:100D7C0000440258000002580004025808B51648F6
:100D8C00164B036000234364436040228264C364B7
:100D9C000365836043618361C361114A0262C3606E
:100DAC00C3620363436380F83830C3634FF48072CB
:100DBC0002640822426501228265C36503664366AC
:100DCC008366C3660267436702F0FCFE00B908BD88
:100DDC00FFF78EFBFBE700BF4C04002004580140DA
:100DEC0000EE020008B51648164B0360002343645E
:100DFC00436040228264C364036583604361836102
:100E0C00C361114A0262C360C3620363436380F827
:100E1C003830C3634FF480720264082242650122A9
:100E2C008265C365036643668366C3660267436770
:100E3C0002F0C8FE00B908BDFFF75AFBFBE700BF84
:100E4C00B40300200454005800EE020010B5B6B0F4
:100E5C000446B822002102A803F095FE2268334B09
:100E6C009A4205D02268324B9A422ED036B010BD31
:100E7C004FF480720023CDE9022302A801F088F917
:100E8C0000BB2C4B1B6863B92B4AD2F8F01041F411
:100E9C008001C2F8F010D2F8F02002F48002009227
:100EAC00009A0133234A1360702331930223329347
:100EBC000023339334930623359331A91F4802F052
:100ECC0099FCCFE7FFF714FBDBE74FF480620023BC
:100EDC00CDE9022300232B9302A801F059F908BB9A
:100EEC00174B1B6863B9144AD2F8F41041F4001183
:100EFC00C2F8F410D2F8F42002F400120192019A14
:100F0C0001330F4A13604FF4605331930223329331
:100F1C000023339334930A23359331A9094802F003
:100F2C0069FCA3E7FFF7E4FADAE700BF04580140D5
:100F3C0004540058B003002000440258001002581A
:100F4C00AC030020000C0258F0B589B01F4BD3F84D
:100F5C00E02042F00802C3F8E020D3F8E02002F0D1
:100F6C0008020092009AD3F8E02042F00802C3F87D
:100F7C00E020D3F8E02002F008020192019AD3F8A5
:100F8C00E82042F48022C3F8E820D3F8E83003F4D8
:100F9C0080230293029B4FF48073039302240494E6
:100FAC000694012305930727079703AE084D314696
:100FBC00284602F01FFC4FF4007303930494079728
:100FCC003146284602F016FC09B0F0BD0044025828
:100FDC00000C0258022846D870B588B028BB234BA9
:100FEC00D3F8E02042F00202C3F8E020D3F8E0305E
:100FFC0003F002030093009B1D4B33F81060039623
:10100C00012304930024059403230693194B53F8EE
:10101C00205003A9284602F0EDFB22463146284613
:10102C0002F0F2FC204608B070BD01280DD00F4B29
:10103C00D3F8E02042F00202C3F8E020D3F8E0300D
:10104C0003F002030293029BD6E7084BD3F8E0208F
:10105C0042F01002C3F8E020D3F8E03003F01003A4
:10106C000193019BC8E76FF00100704700440258E0
:10107C000C4F0008144F000810B586B01C4BD3F869
:10108C00E02042F00402C3F8E020D3F8E03003F093
:10109C0004030093009B4FF400530193022303932A
:1010AC00049341B90023029301A9124802F0A2FB58
:1010BC00002006B010BD04464FF48813029301A91A
:1010CC000C4802F097FB0C4B03EBC4040B49204675
:1010DC0002F03BFD0A4A0021204602F02DFD0022C1
:1010EC000F21282000F0A0F8282000F0ADF8DFE751
:1010FC000044025800080258780500200D003016F4
:10110C002511000808B5034B03EBC00002F024FDC9
:10111C0008BD00BF7805002008B50020FFF7E0F9F6
:10112C0008BD000008B50A4A126802600A684260ED
:10113C000C2242614A8902614A6882600A89C26053
:10114C008A8982614FF40042C26103F02EFC08BD13
:10115C000800002070B938B50D469422084C02FBEB
:10116C0000442046FFF7F0FE29462046FFF7DAFF41
:10117C0018B938BD6FF0010070476FF00300F8E745
:10118C00E4040020002807DB00F01F0240090123C3
:10119C009340024A42F82030704700BF00E100E063
:1011AC00002804DB0901C9B2044B1954704700F044
:1011BC000F000901C9B2024B1954704700E400E05A
:1011CC0014ED00E000B500F00700C0F1070CBCF115
:1011DC00040F28BF4FF0040C031D062B0FD9C31EA0
:1011EC004FF0FF3E0EFA0CF021EA000199400EFA86
:1011FC0003FE22EA0E0241EA02005DF804FB002322
:10120C00EEE700000649CB6823F4E0631B041B0CDB
:10121C00000200F4E0600343024A1A43CA607047BC
:10122C0000ED00E00000FA0510B50446054BD86847
:10123C00C0F30220FFF7C6FF01462046FFF7B0FFC0
:10124C0010BD00BF00ED00E008B5FFF79BFF08BD27
:10125C000138B0F1807F0BD24FF0E0235861054A82
:10126C00F02182F823100020986107221A61704740
:10127C000120704700ED00E0BFF35F8F044B5A6A0A
:10128C0022F480325A620022C3F89420704700BFC7
:10129C0000ED00E040F00100054BC3F894005A6AE1
:1012AC0042F480325A62BFF34F8FBFF36F8F704797
:1012BC0000ED00E04378144AC2F89830D2F8A03020
:1012CC0023F00103C2F8A0304368C2F89C30017BC4
:1012DC00C37A1B0643EA0173817A43EAC143417B1B
:1012EC0043EA8143817B43EA4143C17B43EA0143A7
:1012FC00417A43EA0123017A43EA410301780B4323
:10130C00C2F8A030704700BF00ED00E000285DD0AF
:10131C0010B5044690F84130002B46D0242384F8B5
:10132C0041302268136823F001031360636822685C
:10133C0023F0706313612268936823F40043936075
:10134C00E368012B36D0A368226843F4044393600E
:10135C00E368022B34D02268536823F40063536093
:10136C00226851681A4B0B4353602268D36823F4EC
:10137C000043D360236962691343A169226843EA7D
:10138C000123D360E369216A22680B43136022684E
:10139C00136843F00103136000206064202384F879
:1013AC004130206384F8420010BD80F84030FFF7D4
:1013BC0059FBB3E7A368226843F400439360C7E783
:1013CC002268536843F400635360C9E701207047F7
:1013DC0000800002034690F84120202A23D190F887
:1013EC004020012A21D0012280F84020242280F8BC
:1013FC0041200068026822F001020260186802684D
:10140C0022F480520260186802680A43026019686C
:10141C000A6842F001020A60202283F84120002071
:10142C0083F8400070470220704702207047034643
:10143C0090F84120202A21D190F84020012A1FD079
:10144C00012280F84020242280F8412000680268A4
:10145C0022F0010202601868026822F4706242EA0B
:10146C000122026019680A6842F001020A60202217
:10147C0083F84120002083F8400070470220704719
:10148C0002207047002800F0D58238B50446036866
:10149C0013F0010F25D0A04A136903F03803926AA8
:1014AC00102B15D0182B0FD06368B3F5803F3FD0AD
:1014BC00002B53D1984B1A6822F480321A601A68A8
:1014CC0022F480221A6038E002F00302022AEBD1E7
:1014DC00914B1B6813F4003F03D06368002B00F0A2
:1014EC00AB82236813F0020F00F088808A4A1369DC
:1014FC00926A13F038035AD0182B55D0E368002B9E
:10150C0000F0A98084490A6822F0190213430B6089
:10151C0002F00CFB0546804B1B6813F0040F40F0E7
:10152C00918002F003FB401B0228F4D903208AE2CD
:10153C00794A136843F48033136063682BB302F069
:10154C00F5FA0546744B1B6813F4003FC9D102F041
:10155C00EDFA401B6428F5D9032074E2B3F5A02FF3
:10156C0009D06D4B1A6822F480321A601A6822F482
:10157C0080221A60E1E7684B1A6842F480221A60F4
:10158C001A6842F480321A60D7E702F0CFFA0546A7
:10159C00614B1B6813F4003FA3D002F0C7FA401B49
:1015AC006428F5D903204EE212F0030FA6D15A4B52
:1015BC001B6813F0040F03D0E368002B00F03E828D
:1015CC00554A136823F01903E1680B43136002F0CA
:1015DC00ADFA0546504B1B6813F0040F06D102F010
:1015EC00A5FA401B0228F5D903202CE24A4A53687D
:1015FC0023F0FE43216943EA01635360236813F02F
:10160C00100F51D0444A136903F03803926A082B27
:10161C0039D0182B33D0E369002B69D03E4A1368BC
:10162C0043F08003136002F081FA05463A4B1B68C5
:10163C0013F4807F53D102F079FA401B0228F5D9BC
:10164C00032000E2344A536823F0FE43216943EA45
:10165C0001635360D2E7304A136823F0010313602F
:10166C0002F064FA05462C4B1B6813F0040FC5D02E
:10167C0002F05CFA401B0228F5D90320E3E102F0EA
:10168C000302012AC7D1244B1B6813F4807F03D0BB
:10169C00E369802B40F0D4811F4AD36823F07C533C
:1016AC00216A43EA0163D360236813F0080F49D021
:1016BC006369002B32D0184A536F43F00103536710
:1016CC0002F034FA0546144B5B6F13F0020F39D15C
:1016DC0002F02CFA401B0228F5D90320B3E10E4A84
:1016EC00D36823F07C53216A43EA0163D360DBE7C0
:1016FC00094A136823F08003136002F017FA0546B9
:10170C00054B1B6813F4807FCED002F00FFA401B00
:10171C000228F5D9032096E1004402589D4A536FE4
:10172C0023F00103536702F001FA0546994B5B6FF6
:10173C0013F0020F06D002F0F9F9401B0228F5D97C
:10174C00032080E1236813F0200F29D0A3699BB1FB
:10175C00904A136843F48053136002F0E7F905468E
:10176C008C4B1B6813F4005F1AD102F0DFF9401B9D
:10177C000228F5D9032066E1864A136823F48053C6
:10178C00136002F0D3F90546824B1B6813F4005F1B
:10179C0006D002F0CBF9401B0228F5D9032052E108
:1017AC00236813F0040F21D1636A002B00F04A81E7
:1017BC00784A126902F03802182A00F0F180022BE4
:1017CC0075D0744A136823F08073136002F0AEF97D
:1017DC000446704B1B6813F0007F00F0D88002F0B9
:1017EC00A5F9001B0228F4D903202CE16A4A1368DE
:1017FC0043F48073136002F099F90546664B1B683D
:10180C0013F4807F06D102F091F9401B6428F5D9BE
:10181C00032018E1A368012B0AD00BBB5D4B1A6F98
:10182C0022F001021A671A6F22F004021A6704E010
:10183C00584A136F43F001031367A36833B302F0E4
:10184C0075F90546534B1B6F13F0020FACD102F028
:10185C006DF9401B41F288339842F3D90320F2E032
:10186C00052B09D04B4B1A6F22F001021A671A6F25
:10187C0022F004021A67E0E7464B1A6F42F00402AA
:10188C001A671A6F42F001021A67D6E702F04EF996
:10189C000546404B1B6F13F0020F85D002F046F942
:1018AC00401B41F288339842F3D90320CBE0394AEC
:1018BC00136823F08073136002F038F90546354B3A
:1018CC001B6813F0007F06D002F030F9401B022891
:1018DC00F5D90320B7E02F4B996A304A0A40A16A28
:1018EC00E06A41EA00110A439A62226B013AC2F3A0
:1018FC000802616B0139490289B20A43A16B0139B3
:10190C00090401F4FE010A43E16B0139090601F0F7
:10191C00FE410A431A63DA6A22F00102DA625A6B58
:10192C006FF3CF02A16C42EAC1025A63DA6A22F069
:10193C000C02216C0A43DA62DA6A22F00202616C50
:10194C000A43DA62DA6A42F48032DA62DA6A42F420
:10195C000032DA62DA6A42F48022DA62DA6A42F03F
:10196C000102DA621A6842F080721A6002F0DEF844
:10197C000446084B1B6813F0007F06D102F0D6F822
:10198C00001B0228F5D903205DE000205BE000205D
:10199C0059E000BF00440258004802580CFCFFFFFD
:1019AC0030498A6A086B012B4ED002F00303A16AFE
:1019BC008B424BD1C2F30512E36A9A4248D1C0F371
:1019CC000802236B013B9A4244D1C0F34622636B5D
:1019DC00013B9A4240D1C0F30642A36B013B9A42B1
:1019EC003CD1C0F30660E36B013B984238D11D4BF0
:1019FC005B6BC3F3CC03A26C9A4201D1002022E0B2
:101A0C00184AD36A23F00103D36202F08FF805461B
:101A1C0002F08CF8A842FBD0124A536B6FF3CF0341
:101A2C00A16C43EAC1035363D36A43F00103D3624D
:101A3C00002008E001207047012004E0012002E0B2
:101A4C00012000E0002038BD0120FCE70120FAE76E
:101A5C000120F8E70120F6E70120F4E70120F2E786
:101A6C000120F0E700440258754B1B6903F0380362
:101A7C00102B00F0DE80182B0FD0002B40F0DB80F9
:101A8C006F4B1B6813F0200F00F0D7806C4B1B685A
:101A9C00C3F3C1036B48D840704710B4684B9A6AC3
:101AAC0002F003029C6AC4F30510D96A01F001012B
:101ABC005B6BC3F3CC0301FB03F307EE903AF8EE38
:101ACC00677A14F47C7F77D0012A4AD0022A76D028
:101ADC00002A40F091805A4B1B6813F0200F23D042
:101AEC0057490A68C2F3C102564BD34007EE103A6D
:101AFC00F8EE476A07EE100AB8EE476A86EE867A69
:101B0C000B6BC3F3080306EE903AF8EE666A9FED92
:101B1C004E6A67EE867A76EEA77AF7EE006A77EE73
:101B2C00A67A27EE277A38E007EE100AF8EE476A15
:101B3C009FED466A86EE267A414B1B6BC3F3080376
:101B4C0006EE903AF8EE666A9FED3F6A67EE867A8B
:101B5C0076EEA77AF7EE006A77EEA67A27EE277A6A
:101B6C001BE007EE100AF8EE476A9FED396A86EE25
:101B7C00267A334B1B6BC3F3080306EE903AF8EE50
:101B8C00666A9FED316A67EE867A76EEA77AF7EE93
:101B9C00006A77EEA67A27EE277A294B1B6BC3F3E4
:101BAC004623013307EE903AF8EE677AC7EE276AC0
:101BBC00FCEEE67A17EE900A5DF8044B704707EEE0
:101BCC00100AF8EE476A9FED236A86EE267A1C4BC4
:101BDC001B6BC3F3080306EE903AF8EE666A9FEDB2
:101BEC001A6A67EE867A76EEA77AF7EE006A77EED7
:101BFC00A67A27EE277AD0E707EE100AF8EE476AA6
:101C0C009FED136A86EE267A0D4B1B6BC3F308030C
:101C1C0006EE903AF8EE666A9FED0B6A67EE867AEE
:101C2C0076EEA77AF7EE006A77EEA67A27EE277A99
:101C3C00B3E709487047094870470248704700BF2E
:101C4C00004402580090D003000000390024744C6A
:101C5C000024744A0024F44A00127A0000093D0062
:101C6C00002800F0328170B50D4604469B4B1B6872
:101C7C0003F00F038B420BD2984A136823F00F0327
:101C8C000B431360136803F00F038B4240F01F816A
:101C9C00236813F0040F0CD02269914B9B6903F05D
:101CAC0070039A4205D98E498B6923F070031A434D
:101CBC008A61236813F0080F0CD06269884BDB69CA
:101CCC0003F070039A4205D98549CB6923F0700360
:101CDC001A43CA61236813F0100F0CD0A269804B11
:101CEC00DB6903F4E0639A4205D97D49CB6923F49F
:101CFC00E0631A43CA61236813F0200F0CD0E26929
:101D0C00774B1B6A03F070039A4205D974490B6A2E
:101D1C0023F070031A430A62236813F0020F0CD0ED
:101D2C00E2686F4B9B6903F00F039A4205D96C492B
:101D3C008B6923F00F031A438A61236813F0010F98
:101D4C0041D0674A936923F47063A1680B43936194
:101D5C006368022B0AD0032B27D0012B2CD0604AAE
:101D6C00126812F0040F06D10120ADE0126812F4D3
:101D7C00003F00F0AE805A490A6922F00702134373
:101D8C000B6101F0D3FE0646554B1B6903F038037B
:101D9C006268B3EBC20F16D001F0C8FE801B41F293
:101DAC0088339842F0D903208EE04D4A126812F025
:101DBC00007FE0D1012087E0494A126812F4807F4D
:101DCC00D9D1012080E0236813F0020F0CD0E26817
:101DDC00434B9B6903F00F039A4205D240498B6930
:101DEC0023F00F031A438A613C4B1B6803F00F036B
:101DFC00AB420AD9394A136823F00F032B43136003
:101E0C00136803F00F03AB4265D1236813F0040F82
:101E1C000CD02269324B9B6903F070039A4205D2B5
:101E2C002F498B6923F070031A438A61236813F0DE
:101E3C00080F0CD062692A4BDB6903F070039A42DD
:101E4C0005D22749CB6923F070031A43CA61236872
:101E5C0013F0100F0CD0A269214BDB6903F4E06383
:101E6C009A4205D21E49CB6923F4E0631A43CA6136
:101E7C00236813F0200F0CD0E269194B1B6A03F096
:101E8C0070039A4205D216490B6A23F070031A4369
:101E9C000A62FFF7E9FD12498B69C3F30323114A68
:101EAC00D35C03F01F03D8408B6903F00F03D35CA2
:101EBC0003F01F0320FA03F30B4A13600B4B18605B
:101ECC000B4B186801F0D0FD70BD0120704701204C
:101EDC00FAE70120F8E70120F6E700BF00200052E6
:101EEC0000440258FC4E00080000002004000020B2
:101EFC001000002008B5FFF7B7FD0B4A9369C3F338
:101F0C0003230A49CB5C03F01F0320FA03F3926905
:101F1C0002F00F02885C00F01F0023FA00F0044A64
:101F2C001060044A136008BD00440258FC4E0008BF
:101F3C00000000200400002008B5FFF7DBFF054B74
:101F4C00DB69C3F30213044AD35C03F01F03D840CC
:101F5C0008BD00BF00440258FC4E000808B5FFF74E
:101F6C00C9FF054BDB69C3F30223044AD35C03F0BE
:101F7C001F03D84008BD00BF00440258FC4E0008A7
:101F8C00404B9B6A03F00303032B79D070B50546D5
:101F9C000E463C4A136823F08063136001F0C6FDC3
:101FAC000446384B1B6813F0006F06D001F0BEFDE1
:101FBC00031B022BF5D9032070BD324B9A6A22F415
:101FCC007C32296842EA01329A626A68013AC2F3A9
:101FDC000802A9680139490289B20A43E968013942
:101FEC00090401F4FE010A4329690139090601F0CB
:101FFC00FE410A439A63DA6A22F0C00269690A4315
:10200C00DA62DA6A22F02002A9690A43DA62DA6A31
:10201C0022F01002DA62DA6B6FF3CF02E96942EA5E
:10202C00C102DA63DA6A42F01002DA62C6B91A4601
:10203C00DB6A43F40023D362124A136843F08063D3
:10204C00136001F073FD04460E4B1B6813F0006F18
:10205C0014D101F06BFD001B0228F5D90320ABE76E
:10206C00012E05D0074AD36A43F40013D362E3E789
:10207C00044AD36A43F48013D362DDE700209BE764
:10208C000120704700440258404B9B6A03F0030345
:10209C00032B79D070B505460E463C4A136823F0E5
:1020AC008053136001F042FD0446384B1B6813F05B
:1020BC00005F06D001F03AFD031B022BF5D903207B
:1020CC0070BD324B9A6A22F07C72296842EA015246
:1020DC009A626A68013AC2F30802A9680139490296
:1020EC0089B20A43E9680139090401F4FE010A4383
:1020FC0029690139090601F0FE410A431A64DA6ABA
:10210C0022F4406269690A43DA62DA6A22F40072E4
:10211C00A9690A43DA62DA6A22F48072DA625A6CCA
:10212C006FF3CF02E96942EAC1025A64DA6A42F4F7
:10213C008072DA62C6B91A46DB6A43F48003D36252
:10214C00124A136843F08053136001F0EFFC04460D
:10215C000E4B1B6813F0005F14D101F0E7FC001B61
:10216C000228F5D90320ABE7012E05D0074AD36A24
:10217C0043F08073D362E3E7044AD36A43F4000369
:10218C00D362DDE700209BE7012070470044025832
:10219C00F8B50446036813F0006F30D0436EB3F506
:1021AC00001F26D00ED8ABB1B3F5801F07D102218A
:1021BC000830FFF7E5FE054695B12E4621E00126D5
:1021CC0035461EE0B3F5401F01D1002508E001267D
:1021DC00354616E09B4AD36A43F40033D36200259C
:1021EC00984A136D23F44013616E0B43136500265C
:1021FC0007E002212830FFF747FF0546DCE7002601
:10220C003546236813F4807F14D0A36D042B34D887
:10221C00DFE803F003252C0808008A4AD36A43F44C
:10222C000033D36265BB874A136D23F00703A16D9E
:10223C000B431365236813F4806F47D0D4F8A43094
:10224C00B3F5800F33D020D85BB3B3F5001F19D191
:10225C00002104F10800FFF793FE05462DE0002154
:10226C0004F10800FFF78CFE0546DBE7002104F1C2
:10227C002800FFF709FF0546D4E701263546D9E7C4
:10228C002E46D7E70126354620E0B3F5000F14D0D3
:10229C00B3F5200F11D0B3F5C00F0ED00126354683
:1022AC0014E0684AD36A43F40033D36205E000219A
:1022BC0004F12800FFF7E8FE0546E5B9614A936D85
:1022CC0023F46003D4F8A4100B439365236813F430
:1022DC00006F36D0D4F8A830B3F1007F22D00FD8DD
:1022EC00D3B1B3F1807F08D1002104F10800FFF7CE
:1022FC0047FE05461CE02E46E8E70126354620E061
:10230C00B3F1806F14D0B3F1A06F11D0B3F1407F53
:10231C000ED00126354614E04A4AD36A43F4003302
:10232C00D36205E0002104F12800FFF7ADFE05465D
:10233C00C5B9444A936D23F0E063D4F8A8100B435D
:10234C009365236813F0007F24D0E36C202B13D00B
:10235C000DD8BBB1102B07D13A4AD36A43F40033E2
:10236C00D3620FE02E46ECE70126354612E0302B07
:10237C0008D0012635460DE0022104F10800FFF7D4
:10238C00FFFD0546D5B92F4AD36C23F03003E16C21
:10239C000B43D364236813F4805F31D0E36DB3F542
:1023AC00005F1FD00FD8BBB1B3F5805F08D10021FF
:1023BC0004F10800FFF7E4FD054619E02E46E9E7B5
:1023CC00012635461CE0B3F5405F11D0B3F5804FC4
:1023DC000ED00126354613E01A4AD36A43F4003373
:1023EC00D36205E0002104F12800FFF74DFE0546FD
:1023FC0015BB144A136D23F4E043E16D0B431365D5
:10240C00236813F4005F33D0236EB3F5003F27D05D
:10241C001AD843B1B3F5803F10D1012104F1080063
:10242C00FFF7AEFD054615BB064A136D23F4E023FA
:10243C00216E0B4313651BE02E46E1E70126354662
:10244C0016E000BF00440258B3F5802FEBD0B3F573
:10245C00A02FE8D0B3F5403FE5D00126354607E084
:10246C00012104F12800FFF70FFE0546DBE72E469D
:10247C00236813F4804F30D0D4F8AC30B3F1005F44
:10248C0023D016D843B1B3F1805F0FD1012104F1F1
:10249C000800FFF775FD0546F5B98B4A936D23F0DF
:1024AC00E043D4F8AC100B43936516E00126354697
:1024BC0013E0B3F1804FEFD0B3F1A04FECD0B3F1F8
:1024CC00405FE9D00126354607E0012104F12800E0
:1024DC00FFF7DAFD0546DFE72E46236813F4004FBD
:1024EC0020D0E36EB3F1805F06D0B3F1005F11D062
:1024FC003BB10126354615E0734AD36A43F40033E9
:10250C00D36275B9704A136D23F04053E16E0B43DF
:10251C00136507E0012104F10800FFF731FD0546C2
:10252C00EFE72E46236813F0807F13D0A36C032BA8
:10253C003BD8DFE803F007023307634AD36A43F45E
:10254C000033D362A5BB604AD36C23F00303A16CA8
:10255C000B43D364236813F4800F2BD1236813F03F
:10256C00010F00F0A380A36F282B00F29D80DFE801
:10257C0003F08B9B9B9B9B9B9B9B859B9B9B9B9B08
:10258C009B9B949B9B9B9B9B9B9B8B9B9B9B9B9BA6
:10259C009B9B8B9B9B9B9B9B9B9B8B00022104F18E
:1025AC000800FFF7EDFC0546CCE701263546D1E7E0
:1025BC002E46CFE7454A136843F48073136001F04D
:1025CC00B5FA0746414B1B6813F4807F05D101F027
:1025DC00ADFAC01B6428F5D90325002D4AD13A4B1E
:1025EC001B6FD4F8B020534013F4407F0CD0364B03
:1025FC001A6F22F44072196F41F480311967196F08
:10260C0021F4803119671A67D4F8B030B3F5807FA4
:10261C0015D08DBBD4F8B03003F44072B2F5407FC6
:10262C001ED0294A136923F47C53136126490B6F7E
:10263C00D4F8B020C2F30B0213430B678EE701F002
:10264C0075FA0746204B1B6F13F0020FE1D101F016
:10265C006DFAC01B41F288339842F3D90325D8E7B1
:10266C001948026922F47C52194901EA13131343E5
:10267C000361DBE72E4671E72E466FE7012104F17B
:10268C000800FFF77DFC0546E5B90F4A536D23F0B2
:10269C003803A16F0B43536508E0012104F12800B6
:1026AC00FFF7F2FC0546EFE701263546236813F0E9
:1026BC00020F1DD0636F052B32D8DFE803F0110B2E
:1026CC002A1111112E46F1E7004402580048025815
:1026DC00CFFFFF00012104F10800FFF751FC054674
:1026EC000DBBB74A536D23F00703616F0B43536562
:1026FC00236813F0040F29D0D4F89030052B00F286
:10270C000881DFE813F018001200FF001800180011
:10271C001800012104F12800FFF7B6FC0546DFE79D
:10272C0001263546E4E72E46E2E7012104F10800D4
:10273C00FFF726FC0546002D40F0EE80A04A936D75
:10274C0023F00703D4F890100B439365236813F020
:10275C00200F1DD0D4F88C30B3F1005F00F0F08066
:10276C0000F2DF804BB1B3F1805F40F0D7800021E5
:10277C0004F10800FFF704FC0546002D40F0E7804B
:10278C008F4A536D23F0E043D4F88C100B43536500
:10279C00236813F0400F1DD0D4F89830B3F5006FB8
:1027AC0000F0E98000F2D8804BB1B3F5806F40F0B7
:1027BC00D080002104F10800FFF7E2FB0546002D54
:1027CC0040F0E0807E4A936D23F4E053D4F89810E7
:1027DC000B439365236813F0800F1DD0D4F89C3005
:1027EC00B3F5804F00F0E28000F2D1804BB1B3F52D
:1027FC00005F40F0C980002104F10800FFF7C0FB26
:10280C000546002D40F0D9806D4A936D23F460434A
:10281C00D4F89C100B439365236813F0080F0DD06C
:10282C00D4F88030B3F5805F00F0CC80644A536DEF
:10283C0023F44053D4F880100B435365236813F0F2
:10284C00100F0DD0D4F89430B3F5807F00F0C48015
:10285C005B4A936D23F44073D4F894100B43936547
:10286C00236813F4002F1CD0D4F8A030B3F5803FAC
:10287C0000F0BC80B3F5003F08D0002B40F0BD80C9
:10288C00002104F10800FFF77BFB0546002D40F00A
:10289C00B7804B4A936D23F44033D4F8A0100B430C
:1028AC009365236813F4802F1CD0D4F88430B3F5CF
:1028BC00001F00F0A780B3F5401F08D0B3F5801FB0
:1028CC0040F0A7803E4AD36A43F40033D362002D14
:1028DC0040F0A2803A4A536D23F44013D4F884108C
:1028EC000B435365236813F4803F00F0AD80236DD8
:1028FC00002B00F09380B3F5803F00F09D80012603
:10290C003546A1E0012104F12800FFF7BDFB054687
:10291C0011E70126354619E72E4617E701263546FD
:10292C0036E7B3F1804F3FF428AFB3F1A04F3FF43B
:10293C0024AFB3F1405F3FF420AF0126354627E7C3
:10294C00022104F12800FFF79FFB054615E72E46F0
:10295C001EE7012635463DE7B3F5805F3FF42FAF08
:10296C00B3F5A05F3FF42BAFB3F5406F3FF427AF47
:10297C00012635462EE7022104F12800FFF784FBDF
:10298C0005461CE72E4625E70126354644E7B3F5F8
:10299C00004F3FF436AFB3F5204F3FF432AFB3F5F1
:1029AC00C04F3FF42EAF0126354635E7022104F126
:1029BC002800FFF769FB054623E72E462CE700BFEE
:1029CC0000440258022104F12800FFF75DFB0028A7
:1029DC003FF42CAF012629E7022104F12800FFF770
:1029EC0053FB00283FF434AF012631E7022104F1F8
:1029FC002800FFF749FB054648E70126354650E716
:102A0C002E464EE7012104F12800FFF73DFB054659
:102A1C005DE70126354665E72E4663E7694AD36ACA
:102A2C0043F40033D36275B9664AD36C23F4803314
:102A3C00216D0B43D36407E0022104F10800FFF77A
:102A4C009FFA0546EFE72E46236813F0005F10D17E
:102A5C00236813F4003F26D0E36FB3F5807F14D0C6
:102A6C0010D9B3F5007F15D0B3F5407F12D00126F5
:102A7C0019E0022104F12800FFF706FB0028E7D03B
:102A8C000126E5E733B101260DE04E4AD36A43F443
:102A9C000033D362002D5CD14A4A536D23F440734A
:102AAC00E16F0B435365236813F4801F06D0454A2E
:102ABC00136D23F00043216F0B431365236813F44C
:102ACC00001F06D03F4A136D23F08073A16E0B4399
:102ADC001365236813F0804F09D03A4B1A6922F41E
:102AEC0000421A611A69D4F8B4100A431A612368B7
:102AFC00002B06DA334AD36C23F04053616D0B4341
:102B0C00D364236813F4000F07D02E4A536D23F4BB
:102B1C004003D4F888100B435365636813F0010F1E
:102B2C0019D1636813F0020F1ED1636813F0040F00
:102B3C0023D1636813F0080F28D1636813F0100FCA
:102B4C002DD1636813F0200F32D106B10126304627
:102B5C00F8BD2E46A7E7002104F10800FFF710FA94
:102B6C000028DED00646DCE7012104F10800FFF75F
:102B7C0007FA0028D9D00646D7E7022104F108004D
:102B8C00FFF7FEF90028D4D00646D2E7002104F165
:102B9C002800FFF779FA0028CFD00646CDE70121AF
:102BAC0004F12800FFF770FA0028CAD00646C8E7DF
:102BBC00022104F12800FFF767FA0028C5D001268E
:102BCC00C5E700BF0044025808B5FFF793F9054B61
:102BDC001B6AC3F30213044AD35C03F01F03D840EF
:102BEC0008BD00BF00440258FC4E000810B4794BDD
:102BFC009A6A9C6AC4F3053CD96AC1F30011DB6B79
:102C0C00C3F3CC0301FB03F314F47C3F00F0DD8031
:102C1C0002F0030207EE903AF8EE677A012A4BD0E5
:102C2C00022A00F09880002A40F0B280694B1B68A1
:102C3C0013F0200F23D067490A68C2F3C102664B18
:102C4C00D34007EE103AF8EE476A07EE10CAB8EE1A
:102C5C00476A86EE867A8B6BC3F3080306EE903ACE
:102C6C00F8EE666A9FED5D6A67EE867A76EEA77A75
:102C7C00F7EE006A77EEA67A27EE277A38E007EEB1
:102C8C0010CAF8EE476A9FED566A86EE267A514BCB
:102C9C009B6BC3F3080306EE903AF8EE666A9FED61
:102CAC004F6A67EE867A76EEA77AF7EE006A77EED1
:102CBC00A67A27EE277A1BE007EE10CAF8EE476AD1
:102CCC009FED486A86EE267A424B9B6BC3F3080352
:102CDC0006EE903AF8EE666A9FED406A67EE867AE9
:102CEC0076EEA77AF7EE006A77EEA67A27EE277AC9
:102CFC00384A936BC3F3462307EE903AF8EE677AA3
:102D0C00F7EE006A77EEA67A87EE276ABCEEC66A03
:102D1C0080ED006A936BC3F3064307EE903AF8EE2E
:102D2C00677A77EEA67A87EE276ABCEEC66A80EDE4
:102D3C00016A936BC3F3066307EE903AF8EE677A79
:102D4C0077EEA67AC7EE276AFCEEE66AC0ED026A59
:102D5C005DF8044B704707EE10CAF8EE476A9FED1A
:102D6C00226A86EE267A1B4B9B6BC3F3080306EE96
:102D7C00903AF8EE666A9FED196A67EE867A76EEFF
:102D8C00A77AF7EE006A77EEA67A27EE277AAFE7F6
:102D9C0007EE10CAF8EE476A9FED126A86EE267AA5
:102DAC000C4B9B6BC3F3080306EE903AF8EE666A85
:102DBC009FED0A6A67EE867A76EEA77AF7EE006ADE
:102DCC0077EEA67A27EE277A92E70023036043601A
:102DDC008360BDE7004402580090D0030000003926
:102DEC000024744C0024744A0024F44A10B4794B27
:102DFC009A6A9C6AC4F3055CD96AC1F300215B6CC6
:102E0C00C3F3CC0301FB03F314F07C7F00F0DD80F3
:102E1C0002F0030207EE903AF8EE677A012A4BD0E3
:102E2C00022A00F09880002A40F0B280694B1B689F
:102E3C0013F0200F23D067490A68C2F3C102664B16
:102E4C00D34007EE103AF8EE476A07EE10CAB8EE18
:102E5C00476A86EE867A0B6CC3F3080306EE903A4B
:102E6C00F8EE666A9FED5D6A67EE867A76EEA77A73
:102E7C00F7EE006A77EEA67A27EE277A38E007EEAF
:102E8C0010CAF8EE476A9FED566A86EE267A514BC9
:102E9C001B6CC3F3080306EE903AF8EE666A9FEDDE
:102EAC004F6A67EE867A76EEA77AF7EE006A77EECF
:102EBC00A67A27EE277A1BE007EE10CAF8EE476ACF
:102ECC009FED486A86EE267A424B1B6CC3F30803CF
:102EDC0006EE903AF8EE666A9FED406A67EE867AE7
:102EEC0076EEA77AF7EE006A77EEA67A27EE277AC7
:102EFC00384A136CC3F3462307EE903AF8EE677A20
:102F0C00F7EE006A77EEA67A87EE276ABCEEC66A01
:102F1C0080ED006A136CC3F3064307EE903AF8EEAB
:102F2C00677A77EEA67A87EE276ABCEEC66A80EDE2
:102F3C00016A136CC3F3066307EE903AF8EE677AF6
:102F4C0077EEA67AC7EE276AFCEEE66AC0ED026A57
:102F5C005DF8044B704707EE10CAF8EE476A9FED18
:102F6C00226A86EE267A1B4B1B6CC3F3080306EE13
:102F7C00903AF8EE666A9FED196A67EE867A76EEFD
:102F8C00A77AF7EE006A77EEA67A27EE277AAFE7F4
:102F9C0007EE10CAF8EE476A9FED126A86EE267AA3
:102FAC000C4B1B6CC3F3080306EE903AF8EE666A02
:102FBC009FED0A6A67EE867A76EEA77AF7EE006ADC
:102FCC0077EEA67A27EE277A92E700230360436018
:102FDC008360BDE7004402580090D0030000003924
:102FEC000024744C0024744A0024F44A10B4794B25
:102FFC009A6A9C6AC4F3051CD96A01F001015B6BE7
:10300C00C3F3CC0301FB03F314F47C7F00F0DD80ED
:10301C0002F0030207EE903AF8EE677A012A4BD0E1
:10302C00022A00F09880002A40F0B280694B1B689D
:10303C0013F0200F23D067490A68C2F3C102664B14
:10304C00D34007EE103AF8EE476A07EE10CAB8EE16
:10305C00476A86EE867A0B6BC3F3080306EE903A4A
:10306C00F8EE666A9FED5D6A67EE867A76EEA77A71
:10307C00F7EE006A77EEA67A27EE277A38E007EEAD
:10308C0010CAF8EE476A9FED566A86EE267A514BC7
:10309C001B6BC3F3080306EE903AF8EE666A9FEDDD
:1030AC004F6A67EE867A76EEA77AF7EE006A77EECD
:1030BC00A67A27EE277A1BE007EE10CAF8EE476ACD
:1030CC009FED486A86EE267A424B1B6BC3F30803CE
:1030DC0006EE903AF8EE666A9FED406A67EE867AE5
:1030EC0076EEA77AF7EE006A77EEA67A27EE277AC5
:1030FC00384A136BC3F3462307EE903AF8EE677A1F
:10310C00F7EE006A77EEA67A87EE276ABCEEC66AFF
:10311C0080ED006A136BC3F3064307EE903AF8EEAA
:10312C00677A77EEA67A87EE276ABCEEC66A80EDE0
:10313C00016A136BC3F3066307EE903AF8EE677AF5
:10314C0077EEA67AC7EE276AFCEEE66AC0ED026A55
:10315C005DF8044B704707EE10CAF8EE476A9FED16
:10316C00226A86EE267A1B4B1B6BC3F3080306EE12
:10317C00903AF8EE666A9FED196A67EE867A76EEFB
:10318C00A77AF7EE006A77EEA67A27EE277AAFE7F2
:10319C0007EE10CAF8EE476A9FED116A86EE267AA2
:1031AC000C4B1B6BC3F3080306EE903AF8EE666A01
:1031BC009FED0A6A67EE867A76EEA77AF7EE006ADA
:1031CC0077EEA67A27EE277A92E700230360436016
:1031DC008360BDE7004402580090D0030000003922
:1031EC000024744C0024744A0024F44A00B58BB0BB
:1031FC00A0F580730B4328D0A0F580630B4377D0E8
:10320C00A0F500630B4300F0CE80A0F580530B4378
:10321C0000F02681A0F500530B4300F08581A0F54A
:10322C0000230B4300F0CE81A0F580330B4300F05C
:10323C001182A0F580430B4300F02A82A0F50040D8
:10324C00084300F07B8200200CE0954B1B6D03F0D3
:10325C000703042B00F29C82DFE803F007111B0329
:10326C00250090480BB05DF804FB8D4B186810F0EE
:10327C000070F7D007A8FFF7B9FE0898F2E7884B63
:10328C00186810F00060EDD004A8FFF7AFFC0498AC
:10329C00E8E7834B186810F00050E3D001A8FFF763
:1032AC00A5FD0198DEE77E4AD36C03F0405312680B
:1032BC0012F0040F07D033B9794B1B68C3F3C10369
:1032CC007948D840CEE7764A126812F4807F03D052
:1032DC00B3F1805F00F05E82714A126812F4003F15
:1032EC0000F05A82B3F1005F00F058820020B9E779
:1032FC006B4B9B6D03F46003B3F5800F33D016D981
:10330C00B3F5C00F00F04C82B3F5000F1FD1644A27
:10331C00D36C03F04053126812F0040F2ED06BBB29
:10332C005F4B1B68C3F3C1035F48D8409AE783B176
:10333C00B3F5001F09D15A4B186810F0006091D0FA
:10334C0004A8FFF753FC04988CE700208AE70020C0
:10335C0088E7534B186810F0007083D007A8FFF76C
:10336C0045FE08987EE74E4B186810F000503FF46D
:10337C0079AF01A8FFF73AFD019873E7484A126844
:10338C0012F4807F03D0B3F1805F00F00B82444ACB
:10339C00126812F4003F00F00782B3F1005F00F0F6
:1033AC00058200205EE73E4B9B6D03F0E063B3F1BA
:1033BC00007F35D016D9B3F1407F00F0F981B3F11D
:1033CC00806F20D1364AD36C03F04053126812F050
:1033DC00040F30D07BBB324B1B68C3F3C1033248A4
:1033EC00D8403FE78BB1B3F1807F0AD12C4B1868E2
:1033FC0010F000603FF436AF04A8FFF7F7FB049819
:10340C0030E700202EE700202CE7254B186810F041
:10341C0000703FF427AF07A8FFF7E8FD089821E7F5
:10342C001F4B186810F000503FF41CAF01A8FFF7B9
:10343C00DDFC019816E71A4A126812F4807F03D05B
:10344C00B3F1805F00F0B681154A126812F4003FA8
:10345C0000F0B281B3F1005F00F0B081002001E711
:10346C000F4B1B6D03F4E043B3F5005F3CD01DD94B
:10347C00B3F5405F00F0A481B3F5804F27D1084A23
:10348C00D36C03F04053126812F0040F37D0002BAA
:10349C0035D1034B1B68C3F3C1030348D840E1E6A5
:1034AC00004402580080BB000090D0038BB1B3F5F0
:1034BC00805F0AD19D4B186810F000603FF4D2AECB
:1034CC0004A8FFF793FB0498CCE60020CAE6002082
:1034DC00C8E6964B186810F000703FF4C3AE07A80E
:1034EC00FFF784FD0898BDE6904B186810F000506B
:1034FC003FF4B8AE01A8FFF779FC0198B2E68B4A0D
:10350C00126812F4807F03D0B3F1805F00F05A810F
:10351C00864A126812F4003F00F05681B3F1005F46
:10352C0000F0548100209DE6804B1B6D03F4E023DA
:10353C00B3F5403F32D00BD8B3F5803F18D0B3F57C
:10354C00003F20D013B9FEF7F7FC8BE6002089E68C
:10355C00B3F5802F2ED0B3F5A02F07D1734B18687D
:10356C0010F400303FF47EAE71487BE6002079E623
:10357C006E4B186810F000603FF474AE04A8FFF7AF
:10358C0035FB05986EE6694B186810F000503FF457
:10359C0069AE01A8FFF72AFC029863E6634B186832
:1035AC0010F004003FF45EAE1B68C3F3C103614826
:1035BC00D84057E65D4B186810F480703FF452AE5B
:1035CC005D484FE6594B9B6D03F44033B3F5803F98
:1035DC0010D0B3F5003F18D0002B40F0F980534BBE
:1035EC00186810F000603FF43DAE04A8FFF7FEFA37
:1035FC00049837E64D4B186810F000503FF432AE8B
:10360C0001A8FFF7F3FB03982CE6484AD36C03F0B0
:10361C004053126812F0040F07D033B9434B1B68A8
:10362C00C3F3C1034348D8401CE6404A126812F465
:10363C00807F03D0B3F1805F00F0CC803B4A1268EE
:10364C0012F4003F00F0C880B3F1005F00F0C680B8
:10365C00002007E6354BDB6C13F4803302D063B9E2
:10366C000020FFE5314B186810F000703FF4FAAD04
:10367C0007A8FFF7BBFC0898F4E52C4B186810F072
:10368C0000603FF4EFAD04A8FFF7B0FA0698E9E547
:10369C00264B9B6D03F0E043B3F1405F32D00BD867
:1036AC00B3F1805F18D0B3F1005F20D013B9FFF7EE
:1036BC008BFAD7E50020D5E5B3F1804F2ED0B3F1CE
:1036CC00A04F07D1194B186810F400303FF4CAAD65
:1036DC001748C7E50020C5E5144B186810F00060CA
:1036EC003FF4C0AD04A8FFF781FA0598BAE50F4B7B
:1036FC00186810F000503FF4B5AD01A8FFF776FB49
:10370C000298AFE5094B186810F004003FF4AAAD1D
:10371C001B68C3F3C1030748D840A3E5034B1868E3
:10372C0010F480703FF49EAD03489BE500440258B2
:10373C0000127A000090D00300093D00294B1B6D4C
:10374C0003F04053B3F1805F0CD0B3F1005F14D0A1
:10375C00002B45D1234B186810F400303FF482AD98
:10376C0021487FE51F4B186810F000703FF47AADCC
:10377C0007A8FFF73BFC089874E51A4B186810F083
:10378C0000603FF46FAD04A8FFF730FA059869E5C7
:10379C00002067E5154865E5002063E5124861E502
:1037AC0013485FE511485DE500205BE50E4859E5DF
:1037BC000F4857E50D4855E5002053E50A4851E5FB
:1037CC000B484FE509484DE500204BE5064849E517
:1037DC00002047E5054845E5002043E5024841E562
:1037EC0000203FE50044025800127A0000093D0019
:1037FC000080BB00F0B583B000236BE085685E00F1
:10380C000324B44025EA0405CC68B4402C438460FE
:10381C00456825EA0C054C68C4F300149C402C4305
:10382C00446069E0DD08083550F8254003F0070CCA
:10383C004FEA8C0C4FF00F0E0EFA0CFE24EA0E0E13
:10384C000C6904FA0CF444EA0E0440F825406BE0D1
:10385C00092400E0002404FA0EF42C430CF1020CB1
:10386C00664D45F82C404FF0B0442568D44325EA0A
:10387C0002064F6817F4801F01D042EA05064FF08C
:10388C00B0452E606D6804EA05064F6817F4001FFA
:10389C0001D042EA05064FF0B0456E60D5F8845071
:1038AC0004EA05064F6817F4003F01D042EA05060A
:1038BC004FF0B045C5F88460D5F880502C404E6868
:1038CC0016F4803F01D042EA05044FF0B042C2F832
:1038DC00804001330A6832FA03F400F08C804FF018
:1038EC00010C0CFA03FC1CEA0202F2D04C6804F046
:1038FC000304013C012C81D94C6804F00304032C13
:10390C000CD0C4685D004FF0030C0CFA05FC24EAE3
:10391C000C0C8C68AC4044EA0C04C4604C6804F099
:10392C000304022C3FF47EAF04684FEA430E4FF0C1
:10393C00030C0CFA0EFC24EA0C0C4C6804F0030487
:10394C0004FA0EF444EA0C0404604C6814F4403F8E
:10395C00BFD02B4CD4F8F45045F00205C4F8F45009
:10396C00D4F8F44004F002040194019C4FEA930C47
:10397C000CF10205214C54F8255003F0030E4FEACC
:10398C008E0E0F2404FA0EF425EA04051D4CA042F9
:10399C003FF460AF04F58064A0421ED004F580644F
:1039AC00A0421CD004F58064A0421AD004F58064B7
:1039BC00A04218D004F58064A04216D004F58064AF
:1039CC00A04214D004F58064A04212D004F5006427
:1039DC00A0423FF43DAF0A243DE701243BE702241B
:1039EC0039E7032437E7042435E7052433E70624B5
:1039FC0031E707242FE703B0F0BD00BF00040058E7
:103A0C0000440258000002580AB181617047090451
:103A1C0081617047134BDB6813F0040F07D1114B16
:103A2C00DB6803F0070383421AD00120704710B5FE
:103A3C000C4AD36823F007030343D36000F076F8F5
:103A4C000446084B5B6813F4005F07D100F06EF876
:103A5C00001BB0F57A7FF4D9012000E0002010BDE6
:103A6C000020704700480258104B1B780BB90120FE
:103A7C00704710B504464FF47A70B0FBF3F30C4A60
:103A8C001068B0FBF3F0FDF7E3FB68B90F2C01D91C
:103A9C0001200AE0002221464FF0FF30FDF7C4FB65
:103AAC00044B1C60002000E0012010BD0C00002025
:103ABC00040000201000002010B50320FDF7A2FB2D
:103ACC00FDF7D2FF0F498B69C3F303230E4AD35C76
:103ADC0003F01F03D8408B6903F00F03D35C03F092
:103AEC001F0320FA03F3094A1360094B18600020E6
:103AFC00FFF7BAFF10B10124204610BD0446FCF7B5
:103B0C00D1FEF9E700440258FC4E000800000020EA
:103B1C0004000020034B1B78034A11680B4413600C
:103B2C00704700BF0C00002080050020014B186876
:103B3C00704700BF8005002018B121B942600846CB
:103B4C007047012070470120704710B101600020C0
:103B5C00704701207047000010B50368C3F30142A1
:103B6C0003F01F03012199401301044A9C580C4295
:103B7C0003D09950436803B1984710BD8800005892
:103B8C000E4B1B680E4AA2FB03231B0B9B00016808
:103B9C000A6822F480320A603BB1013B0268126869
:103BAC0012F4803FF8D100207047D0F8943043F0E5
:103BBC004003C0F894300320704700BF040000207D
:103BCC001BECCB95F8B5002800F05E81044690F80C
:103BDC003850012D15D02368AE49AF4A934218BF17
:103BEC008B421ED001F1C051A1F5823102F1C052BD
:103BFC00A2F58232934218BF8B4240F04781A74E08
:103C0C0010E00368A349A64A8B4218BF934240F0C8
:103C1C00EA804368012B40F0E680436C002BDAD03D
:103C2C00E1E0A04E94F891308BB12046FFF7A8FF4D
:103C3C000546002840F02C81022384F89130E3687B
:103C4C00012B0AD0022B40F0D080202206E084F811
:103C5C0090302046FDF7FAF8E7E71022A368022B14
:103C6C0000F0CA80052B00F0C280012B40F0C78009
:103C7C004FF480673260236A002B37D02368854964
:103C8C00854A934218BF8B4200F0BB80002022680B
:103C9C00834B9A4200F0BB802268834B9A4200F01F
:103CAC00BC80A369B3F5002F00F0BD80A36AB3F10B
:103CBC00806F00F0CC80012200EB80004000236A72
:103CCC0002FB03F31B02B0FBF3F0784BA3FB0023C6
:103CDC00DB08636203EB8302A0EB4200082801D9E6
:103CEC0001336362636C042B00F0B3806368022BB6
:103CFC0018BF002B40F0B480236D012B00F0AD8079
:103D0C004FF4007C22681168694B0B4013602168EA
:103D1C000A686368606C0343A06C0343E06C034364
:103D2C0043EA0C033B43E06A034360690343A06925
:103D3C000343606A43EA0053A06A034320690343C8
:103D4C001A430A60226851685A4B0B405360216831
:103D5C004A68E369206B0343606B034313434B6076
:103D6C0022689168544B0B40936020688268636DA5
:103D7C00013B616E0B43E16D0B43216E0B43A16D57
:103D8C00013943EA0123134383602268D36823F487
:103D9C007D6323F00F031B041B0CD3602068C268E7
:103DAC00A36EE16E0B43616F43EA0143216F01394E
:103DBC0043EA01231343C36023683649384A9342CC
:103DCC0018BF8B4207D1736C23F00103736494F812
:103DDC003830012B4DD00023C4F89430012284F8E4
:103DEC00912084F890302846F8BD002236E742F046
:103DFC0003024FF400673DE74FF400673AE70027F2
:103E0C0038E74FF480700021FFF7F0F93FE74FF4EB
:103E1C0080600021FFF7EAF93EE74FF400600021D3
:103E2C00FFF7E4F93DE7636C042B0BD0082B0BD0A8
:103E3C00626D00EB80004000236A02FB03F3B0FBD1
:103E4C00F3F042E74022F4E74FF48072F1E70222EC
:103E5C0032E7636A5B08636248E74FF0000C51E796
:103E6C00236D012B02D04FF0000C4BE74FF4007C7C
:103E7C0048E7236CE26B013A43EA02137364736CF8
:103E8C0043F001037364A6E70125ACE70125AAE71B
:103E9C000125A8E70458014024580140005400585B
:103EAC00045400580058014024540058CDCCCCCCBC
:103EBC0010C005F0F01FFFFF0080F8FFC36B5B091B
:103ECC00C0680830C00803FB00007047002800F0F1
:103EDC00B78070B504460023836205685C4B5D4E69
:103EEC009D4218BFB54214BF0126002607D0A3F58A
:103EFC0074439D4203D0C3680F2B00F2A38020466D
:103F0C00FFF7DCFF2EB1544B9D4202D0082800F283
:103F1C009B804F4A4F4B9D4218BF954203D003F5EF
:103F2C0080639D4202D1102800F2908094F8813079
:103F3C00F3B1022384F881302268136823F0010363
:103F4C00136023689A6802F4F812A169B1F1806FCA
:103F5C0014D0636813F4800F23D0E368062B20D9A8
:103F6C0021680B6823F48073206D03430B601DE004
:103F7C0084F880302046FCF78FFBDAE76168B1F5F6
:103F8C00800F06D00029E4D1A16BB1F1805FE0D1A4
:103F9C0002E0A06B0028F5D1196841F4805119603A
:103FAC00D7E721680B6823F480730B60E369A16A7F
:103FBC000B431343E26B1343E16822680B4393609A
:103FCC00636B626A1343A26B1343A26913432269A6
:103FDC00134362691343226A134362681343E26C0E
:103FEC001343A2681343A26C1343A16D22680B43C5
:103FFC00D36063686BB92268936823F4C05343F4AD
:10400C00006393602268936823F4C06343F4806375
:10401C0093602268136D23F001031365636813F436
:10402C00800F06D02268D36823F00043616D0B43E8
:10403C00D3600020C4F88400012384F8813070BD63
:10404C00012070470120FAE70120F8E70120F6E78C
:10405C000030014000380040003C0040026852E84B
:10406C00003F23F4907342E800310029F6D1026836
:10407C0002F1080353E8001F0D4B0B40083242E8D5
:10408C0000310029F3D1C36E012B06D02023C0F8D8
:10409C008C300023C36643677047026852E8003FC8
:1040AC0023F0100342E800310029F6D1EEE700BFFF
:1040BC00FEFFFFEF70B586B00446836802691343B8
:1040CC0042691343C269134301680868904A02406D
:1040DC001A430A602268536823F44053E1680B4387
:1040EC005360A16922688B4B9A4201D0236A194311
:1040FC009068894B03400B4393602268D36A23F08A
:10410C000F03616A0B43D3622368844A934229D01C
:10411C00834A934200F09480824A934200F0AA8032
:10412C00814A934200F0C080804A934200F0D680CE
:10413C007F4A934200F008817E4A934200F02D8121
:10414C007D4A934200F040817C4A934200F05381B7
:10415C007B4A934200F078816E4A934200F09D8135
:10416C0080223BE0774A526D02F03802282A34D87C
:10417C00DFE812F029003300330033003300330042
:10418C0033003300AB013300330033003300330012
:10419C00330033002B003300330033003300330083
:1041AC00330033002D003300330033003300330071
:1041BC00330033002F00330033003300330033005F
:1041CC00330033003100012208E0082206E01022FF
:1041DC0004E0202202E0402200E080224D498B4284
:1041EC0000F08C81E069B0F5004F00F00282202ACB
:1041FC0000F25A82202A00F2A482DFE812F0710247
:10420C007702A202A2027A02A202A202A2027F02F8
:10421C00A202A202A202A202A202A202A202840290
:10422C00A202A202A202A202A202A202A202A20262
:10423C00A202A202A202A202A202A202A202900264
:10424C00404A526D02F00702052A11D8DFE812F03D
:10425C0006003F0108000A000C000E000022BDE71A
:10426C000822BBE71022B9E72022B7E74022B5E7C6
:10427C008022B3E7334A526D02F00702052A11D8A7
:10428C00DFE812F00600270108000A000C000E00FF
:10429C000022A3E70822A1E710229FE720229DE736
:1042AC0040229BE7802299E7264A526D02F00702D2
:1042BC00052A11D8DFE812F006000F0108000A00E9
:1042CC000C000E00002289E7082287E7102285E700
:1042DC00202283E7402281E780227FE7194A526D32
:1042EC0002F00702052A11D8DFE812F00600F700E9
:1042FC0008000A000C000E0000226FE708226DE790
:10430C0010226BE7202269E7402267E7802265E7ED
:10431C00F369FFCF000C0058FFF4FF1100100140AF
:10432C000044004000480040004C00400050004059
:10433C000014014000780040007C0040001801404F
:10434C00001C014000440258694A526D02F03802C8
:10435C00282A20D8DFE802F0151F1F1F1F1F1F1F60
:10436C00C31F1F1F1F1F1F1F171F1F1F1F1F1F1FB5
:10437C00191F1F1F1F1F1F1F1B1F1F1F1F1F1F1F4B
:10438C001D0001222AE7082228E7102226E7202216
:10439C0024E7402222E7802220E7554A526D02F0A2
:1043AC000702052A0ED8DFE802F0039C0507090B6B
:1043BC00002213E7082211E710220FE720220DE755
:1043CC0040220BE7802209E7494A526D02F00702AE
:1043DC00052A0ED8DFE802F003870507090B002237
:1043EC00FCE60822FAE61022F8E62022F6E6402245
:1043FC00F4E68022F2E63E4A526D02F03802282A98
:10440C0020D8DFE802F0151F1F1F1F1F1F1F721F70
:10441C001F1F1F1F1F1F171F1F1F1F1F1F1F191FAE
:10442C001F1F1F1F1F1F1B1F1F1F1F1F1F1F1D00B5
:10443C000122D3E60822D1E61022CFE62022CDE6D7
:10444C004022CBE68022C9E6294A526D02F038029E
:10445C00282A20D8DFE802F0151F1F1F1F1F1F1F5F
:10446C004E1F1F1F1F1F1F1F171F1F1F1F1F1F1F29
:10447C00191F1F1F1F1F1F1F1B1F1F1F1F1F1F1F4A
:10448C001D000122AAE60822A8E61022A6E6202298
:10449C00A4E64022A2E68022A0E602F50E32926D3E
:1044AC0002F00702052A0ED8DFE802F00326050702
:1044BC00090B022292E6082290E610228EE62022B8
:1044CC008CE640228AE6802288E6042286E60422D4
:1044DC0084E6042282E6042280E604227EE604229C
:1044EC007CE604227AE6042278E6042276E600BF13
:1044FC0000440258042271E604226FE6202A27D8D1
:10450C00022AC0F01081023A1E2A00F20E81DFE866
:10451C0012F050000C0156000C010C010C015B0058
:10452C000C010C010C010C010C010C010C016000C4
:10453C000C010C010C010C010C010C010C010C0107
:10454C000C010C010C010C010C010C010C016C0098
:10455C00402A2CD14FF40040626A804B33F8122071
:10456C00B0FBF2F3656805EB4501994200F2DF8080
:10457C00B3EB053F00F2DD80002633463146FBF7F6
:10458C009FFE090241EA106100026B08C0182A461E
:10459C00334641F10001FBF793FEA0F54072704BDE
:1045AC009A4200F2C8802368D8603046CAE00120E5
:1045BC00C8E0FEF709FB0028CED10020C2E003A81A
:1045CC00FEF714FB0498F6E76846FEF70FFC01981B
:1045DC00F1E7644B1B6813F0200F08D0614B1B688C
:1045EC00C3F3C1036048D840B6E76048B4E75E48FF
:1045FC00B2E7202A15D8202A00F29F80DFE802F0CB
:10460C0031379D9D3A9D9D9D3F9D9D9D9D9D9D9D61
:10461C00449D9D9D9D9D9D9D9D9D9D9D9D9D9D9D17
:10462C005000402A1BD1626A4C4B33F81230B0FB5D
:10463C00F3F06268530803EB4003B3FBF2F3A3F10E
:10464C0010014FF6EF72914279D89AB222F00F0214
:10465C00C3F3420313432268D360002072E00120AD
:10466C0070E0FDF769FC0028DDD100206AE0FDF761
:10467C0075FCF8E703A8FEF7B9FA0498F3E7684667
:10468C00FEF7B4FB0198EEE7364B1B6813F0200FD6
:10469C0008D0344B1B68C3F3C1033348D840C2E77E
:1046AC003248C0E73048BEE7402A17D14FF40040EB
:1046BC00626A2A4B33F81230B0FBF3F0636800EBFC
:1046CC005300B0FBF3F0A0F110024FF6EF739A42D7
:1046DC0042D8236880B2D860002033E0012031E05A
:1046EC00FDF72AFC0028E3D100202BE0FDF736FC77
:1046FC00F8E703A8FEF77AFA0498F3E76846FEF7A2
:10470C0075FB0198EEE7174B1B6813F0200F08D0D0
:10471C00144B1B68C3F3C1031348D840C8E71348B4
:10472C00C6E71148C4E701200CE001200AE0012093
:10473C0008E0012006E0012004E0012002E0012055
:10474C0000E001200123A4F86A30A4F868300023AB
:10475C006367A36706B070BD0120F3E7204F000824
:10476C00FFFC0F00004402580090D00300093D00EC
:10477C00836A13F0080F06D00268536823F40043D1
:10478C00816B0B435360836A13F0010F06D00268F0
:10479C00536823F40033C16A0B435360836A13F0EC
:1047AC00020F06D00268536823F48033016B0B436D
:1047BC005360836A13F0040F06D00268536823F425
:1047CC008023416B0B435360836A13F0100F06D0A8
:1047DC000268936823F48053C16B0B439360836A24
:1047EC0013F0200F06D00268936823F40053016C79
:1047FC000B439360836A13F0400F0AD0026853682E
:10480C0023F48013416C0B435360436CB3F5801F4E
:10481C000BD0836A13F0800F06D00268536823F420
:10482C000023C16C0B43536070470268536823F438
:10483C00C003816C0B435360EBE72DE9F84305464D
:10484C000E4617469946DDF820802B68DC6936EA5F
:10485C0004040CBF01240024BC423AD1B8F1FF3F40
:10486C00F3D0FFF763F9A0EB0900404534D8B8F159
:10487C00000F33D02B681A6812F0040FE5D0B6F194
:10488C00400218BF0122802EDFD0002ADDD0DA6969
:10489C0012F0080F11D1DA6912F4006FD5D04FF471
:1048AC0000621A622846FFF7D9FB2023C5F8903026
:1048BC00002385F8843003200CE008241C62284671
:1048CC00FFF7CCFBC5F89040002385F8843001201D
:1048DC0000E00020BDE8F8830320FBE70320F9E7A4
:1048EC0030B583B004460023C0F89030FFF71EF9B2
:1048FC0005462268126812F0080F10D123681B6855
:10490C0013F0040F28D12023C4F88830C4F88C305D
:10491C000020E066206784F8840003B030BD6FF09F
:10492C007E430093034600224FF400112046FFF70C
:10493C0084FF0028E2D0226852E8003F23F0800375
:10494C0042E800310029F6D12023C4F88830002336
:10495C0084F884300320E0E76FF07E4300932B460D
:10496C0000224FF480012046FFF767FF0028CAD0D1
:10497C00226852E8003F23F4907342E8003100298A
:10498C00F6D1226802F1080353E8003F23F001033B
:10499C00083242E800310029F3D12023C4F88C30CE
:1049AC00002384F884300320B7E778B310B50446AD
:1049BC00D0F888300BB32423C4F8883022681368ED
:1049CC0023F001031360A36AE3B92046FFF772FBDF
:1049DC00012811D02268536823F490435360226855
:1049EC00936823F02A0393602268136843F0010351
:1049FC0013602046FFF774FF10BD80F88430FCF77D
:104A0C001DF9D8E72046FFF7B3FEDEE7012070471B
:104A1C00436E2BB90123A0F86A30A0F868307047B8
:104A2C0030B403689A68C2F342629968490F094D21
:104A3C006B5C1B01084C615C93FBF1F3A0F86A30D2
:104A4C00AB5C1B01A25C93FBF2F3A0F8683030BCAA
:104A5C00704700BF404F0008384F000890F8843072
:104A6C00012B18D0012380F884302423C0F888301F
:104A7C0003681A68196821F00101196022F00052CC
:104A8C000023436601680A602022C0F8882080F861
:104A9C008430184670470220704738B590F884303F
:104AAC00012B1DD00446012380F884302423C0F848
:104ABC00883003681D681A6822F001021A600268C7
:104ACC00936823F0604319439160FFF7A1FF2368BB
:104ADC001D602023C4F88830002084F8840038BD81
:104AEC000220FCE738B590F88430012B1DD0044629
:104AFC00012380F884302423C0F8883003681D68B3
:104B0C001A6822F001021A600268936823F060634D
:104B1C0019439160FFF77CFF23681D602023C4F8C4
:104B2C008830002084F8840038BD0220FCE70000A7
:104B3C00DFF838D0FBF730FFFBF7C6FE0C480D4909
:104B4C000D4A002302E0D458C4500433C4188C42DC
:104B5C00F9D30A4A0A4C002301E013600432A24242
:104B6C00FBD300F019F8FBF783FC70470000022020
:104B7C000000002014000020584F000814000020F2
:104B8C0084050020FEE702440346934200D170479F
:104B9C0003F8011BF9E7000070B50D4B0D4D5B1BC5
:104BAC009C100026A64209D100F096F90A4D0B4B39
:104BBC005B1B9C100026A64205D170BD55F8043B2A
:104BCC0098470136EEE755F8043B98470136F2E773
:104BDC00504F0008504F0008504F0008544F000829
:104BEC002DE9F047089D0F4604468C46002B48D112
:104BFC008A42164661D9B2FA82F34BB1C3F1200254
:104C0C0001FA03FC20FA02F29E4042EA0C0C9C4092
:104C1C004FEA164EB7B2BCFBFEF1220C0EFB11CCC8
:104C2C0042EA0C4201FB07F0904209D9B21801F19B
:104C3C00FF3C80F0EE80904240F2EB80023932442F
:104C4C00121AA4B2B2FBFEF00EFB102244EA02448C
:104C5C0000FB07F7A74209D9341900F1FF3280F0A5
:104C6C00DA80A74240F2D7803444023840EA01404F
:104C7C00E41B00211DB1DC400023C5E90043BDE865
:104C8C00F0878B4206D90DB1C5E900010021084619
:104C9C00BDE8F087B3FA83F1002948D1BB4202D3B7
:104CAC00824200F20781841A67EB030201209446CA
:104CBC00002DE4D0C5E9004CE1E7002A00F0928019
:104CCC00B2FA82F3002B40F0A8808A1A4FEA164EF3
:104CDC001FFA86FC0121200CB2FBFEF70EFB1722FB
:104CEC0040EA02420CFB07F0904207D9B21807F1D8
:104CFC00FF3802D2904200F2E2804746121AA4B268
:104D0C00B2FBFEF00EFB102244EA02440CFB00FC4A
:104D1C00A44507D9341900F1FF3202D2A44500F2A0
:104D2C00CB801046A4EB0C0440EA0740A2E7C1F18B
:104D3C0020068B4022FA06FC4CEA030C07FA01F41D
:104D4C0020FA06F3F7404FEA1C49234300FA01F816
:104D5C001FFA8CFEB7FBF9F01C0C09FB107744EA28
:104D6C00074400FB0EF7A74202FA01F20AD91CEB2A
:104D7C00040400F1FF3A80F09B80A74240F2988037
:104D8C0002386444E41B9FB2B4FBF9F309FB1344EF
:104D9C0047EA044403FB0EFEA64509D91CEB0404A8
:104DAC0003F1FF3780F08280A6457FD9023B644433
:104DBC0043EA0040A4EB0E04A0FB02E7BC4273469E
:104DCC00B94663D360D05DB1B8EB030264EB090460
:104DDC0004FA06F622FA01F31E43CC40C5E900643E
:104DEC0000214CE76208480842EAC1710B0C43EA07
:104DFC0000438AB242EA0342B3FBF6F1E407B4463D
:104E0C003746B6461F23B0FBF6F0D21B41EA0041F1
:104E1C0061E7614614E7104628E7C3F1200120FA48
:104E2C0001F29E4027FA01F19F403A434FEA164E99
:104E3C001FFA86FCB1FBFEF70EFB1710110C41EAB2
:104E4C00004107FB0CF8884504FA03F43AD97118B1
:104E5C0007F1FF3001D288451FD8A1EB0801B1FB47
:104E6C00FEF808FB0CF70EFB181192B242EA014255
:104E7C00BA422FD2B21808F1FF31C6D2BA42C4D20C
:104E8C00A8F102013244C0E7F0459CD2BEEB02030C
:104E9C0067EB0C070138B94695E7A6EB08084144C7
:104EAC00B81EB1FBFEF808FB0CF7DCE73B467FE7CE
:104EBC00504667E70846FBE63444023832E7023FC7
:104ECC0032441BE7A1EB08013846B1FBFEF808FBA6
:104EDC000CF7C8E7414698E7F8B500BFF8BC08BC2A
:104EEC009E467047F8B500BFF8BC08BC9E4670479C
:104EFC000000000001020304010203040607080974
:104F0C00010002000040000000040258001002588A
:104F1C0000040258010002000400060008000A0008
:104F2C000C00100020004000800000010804020466
:0C4F3C0008010101010101030701000050
:084F4800A4FCFF7F0100000042
:044F500069030008E9
:044F5400410300080D
:104F58000090D0030090D0030048004001000000FA
:044F68001000000035
:0400000508004B3D67
:00000001FF
